S01200004D70332D506C617965722E7372656388
S11300000C9434000C9451000C9451000C94510045
S11300100C9451000C9451000C9451000C94510018
S11300200C9451000C9451000C9451000C94510008
S11300300C9451000C9451000C9451000C945100F8
S11300400C9451000C9451000C9451000C945100E8
S11300500C9451000C9451000C9451000C945100D8
S11300600C9451000C94510011241FBECFEFD4E026
S1130070DEBFCDBF11E0A0E0B1E0E2ECFDE102C0E3
S113008005900D92AA37B107D9F721E0AAE7B1E0AC
S113009001C01D92A438B207E1F70E94F9090C943B
S11300A0DF0E0C940000FF920F931F93CF93DF9306
S11300B0C82FD42F152F062FF72E87FF09C040E035
S11300C050E0BA0187E70E945300823040F5CF77B1
S11300D0299A0E94B00B29980E94B00B8C2F0E9481
S11300E0AB0B8F2D0E94AB0B802F0E94AB0B812F8B
S11300F00E94AB0B8D2F0E94AB0BC03421F0C8348F
S113010021F487E803C085E901C081E00E94AB0BBC
S1130110CAE00E94B00B87FF02C0C150D1F7DF9143
S1130120CF911F910F91FF9008951F93CF93DF9369
S1130130C0917A01D0917B01CE3F8FEFD80729F08F
S113014080E00E94AB0B2197F7CF0E94B00B8F7118
S1130150853019F4C8E8D3E107C011E00DC0209739
S1130160E1F30E94B70B21970E94B00B8F3FB9F7C0
S113017011E0CD2B09F010E0299A0E94B00B812FD9
S1130180DF91CF911F910895CF92DF92EF92FF926A
S11301900F931F93CF93DF9300D000D0CDB7DEB77A
S11301A080917C01882319F0299B0E9495000E946C
S11301B0A10B299A1AE00E94B00B1150E1F740E01C
S11301C050E0BA0180E40E945300813009F05DC020
S11301D04AEA51E060E070E088E40E945300813014
S11301E061F58E010F5F1F4F6E0185E0C80ED11CB3
S11301F078010E94B00BF70181937F01EC15FD0596
S1130200C1F78B81813009F040C08C818A3A09F0B2
S11302103CC090E1E92E97E2F92E40E050E060E026
S113022070E489EE0E945300882339F10E94B70BD1
S1130230F1E0EF1AF10889F728C040E050E0BA0174
S113024089EE0E945300823018F011E001E402C0EC
S113025012E009EE80E1E82E87E2F82E40E050E05B
S1130260BA01802F0E945300882349F10E94B70BE2
S1130270F1E0EF1AF10891F708C040E050E0BA014C
S11302808AE70E945300882311F010E00CC00E94FA
S1130290B00BF80181938F01CE16DF06C1F7898177
S11302A086FD0BC014E010937C01299A0E94B00BC8
S11302B081E0112371F080E00CC01CE0F4CF40E039
S11302C052E060E070E080E50E9453008111DDCFD0
S11302D0EACF0F900F900F900F90DF91CF911F9165
S11302E00F91FF90EF90DF90CF900895CF92DF921F
S11302F0EF92FF920F931F93CF93DF937C016901D9
S113030080917C0183FD07C089E0440F551F661F5F
S1130310771F8A95D1F781E50E945300882311F055
S1130320C1E02BC0C0E4DCE90E94B00B8F3F19F49C
S11303302197D1F7F5CF8E3F99F7C2E0D2E0C01BE9
S1130340D10BCC19DD09C114D10421F4E114F10459
S113035039F40EC00E94B00B81E0C81AD108F3CF63
S11303600E94B00BF70181937F0101501109C1F77D
S11303700E94B00B2197E1F7C0E0299A0E94B00BCC
S11303808C2FDF91CF911F910F91FF90EF90DF9011
S1130390CF9008950F931F93E0917D01F0917E011A
S11303A09B01AC0122503109410951098681978191
S11303B0A085B1850297A109B109281739074A0711
S11303C05B0768F4A281B0E00E94DB0B0289138909
S11303D024893589600F711F821F931F03C060E059
S11303E070E0CB011F910F9108950F931F93CF934A
S11303F0DF93DC01E0917D01F0917E0111961C9266
S11304001E9214966D917D918D919C9117976130F8
S113041071058105910561F106811781208531857A
S1130420601771078207930718F561157105810537
S1130430910539F42081233021F4668577858089FC
S11304409189ED01688779878A879B876115710592
S11304508105910519F00E94CA0104C0668577855B
S1130460808991896C877D878E879F8780E001C012
S113047081E0DF91CF911F910F9108954F925F9288
S11304806F927F92AF92BF92CF92DF92EF92FF92E0
S11304900F931F93CF93DF9300D000D0CDB7DEB777
S11304A0623071058105910508F4AAC0A0907D0110
S11304B0B0907E01F501C680D780E084F1846C158C
S11304C07D058E059F0508F09BC06B017C01808132
S11304D0823009F452C0833009F46BC0813009F0D2
S11304E08FC02601569447944C0C5D1C92013170C8
S11304F0452C55244694612C712C42855385648582
S11305007585440D551D661D771D2F3FF1E03F078E
S113051029F002E010E0CE0101961BC001E010E0DA
S11305202FEF31E0CE0101960E947601811168C05F
S1130530F50142855385648575854F5F5F4F6F4F25
S11305407F4F440D551D661D771D20E030E0CE0120
S113055002960E947601811153C089819A81C0FE5E
S113056007C0BC01E4E076956795EA95E1F702C01F
S1130570BC017F7080E090E047C096013327220FD2
S1130580331F77276F2D5E2D4D2DF50182859385C1
S1130590A485B585480F591F6A1F7B1F02E010E030
S11305A0CE0101960E94760181112AC069817A8167
S11305B0E1CF96012F773327220F331F220F331FEA
S11305C097E0F694E794D794C7949A95D1F7F501F8
S11305D042855385648575854C0D5D1D6E1D7F1D9B
S11305E004E010E0CE0101960E947601811108C05A
S11305F089819A81AB81BC81BC01CD019F7004C00B
S113060061E070E080E090E00F900F900F900F9009
S1130610DF91CF911F910F91FF90EF90DF90CF90DA
S1130620BF90AF907F906F905F904F900895CF925E
S1130630DF92EF92FF920F931F93CF93DF93EC011E
S1130640088119810F5F1F4F11F483E05BC04C8553
S11306505D856E857F854115510561057105A9F399
S1130660C8018F709927892B09F047C0E0907D015C
S1130670F0907E014F5F5F4F6F4F7F4F4C875D87D8
S11306806E877F87688579858A859B85F7016115E3
S113069071058105910531F4848195810817190745
S11306A0A0F62BC0228130E0A901415051099801E4
S11306B0E4E036952795EA95E1F724233523232BA7
S11306C0E1F40E943E026230710581059105C8F093
S11306D0F701C680D780E084F1846C157D058E0512
S11306E09F0508F0B2CF688779878A879B870E9425
S11306F0CA016C877D878E879F871983088380E072
S113070001C081E0DF91CF911F910F91FF90EF9095
S1130710DF90CF900895CF92DF92EF92FF920F93E4
S11307201F93CF93DF93EC016A017B0102E010E099
S11307302EEF31E00E947601811126C088819981D3
S113074085359A4A19F526E330E0B701A601CE01B2
S11307500E947601811107C0888199818634914471
S113076011F480E016C002E010E022E530E0B701A9
S1130770A601CE010E94760181110AC08881998167
S11307808634914429F4EDCF83E003C082E001C0B4
S113079081E0DF91CF911F910F91FF90EF90DF9057
S11307A0CF900895AF92BF92CF92DF92EF92FF92D3
S11307B00F931F93CF93DF93EC015B016A01FA015E
S11307C080814F5F5F4F8032C9F38F3209F46A0131
S11307D01C821D821E821F82F6018081813218F0E4
S11307E050E2E52E60C0CE010E94F501F82EF5011D
S11307F010829DC090E080E028E031E0380FD601FF
S1130800A80FB11D8C91813208F058C0C30ED11CC1
S113081091E0813208F090E09387CE010E94F501C7
S1130820F82E81116DC0288139812F70332745E05E
S1130830220F331F4A95E1F74C855D856E857F85D0
S113084000E210E0C5010E947601811164C0F50147
S11308508081882309F457C0838583FD4AC00A81B7
S11308601B819501D801B801655F7F4F6A177B072B
S1130870C9F5F801938591115AC084FF49C0F50167
S113088084899589A0E0B0E0DC0199278827428D0E
S1130890538D60E070E0842B952BA62BB72B8C83B3
S11308A09D83AE83BF83EA81FB81DF01CF010B9679
S11308B0A817B90709F49ECFED92FACF8F3209F445
S11308C0A5CF8E3271F1921708F0A0CF4FE9480FEF
S11308D04A3108F48052DF01A90FB11D8C939F5F48
S11308E0832F8BCFF90141919F019D91491709F401
S11308F0BDCFCE010E941703882309F494CFF82EAC
S1130900F3E0FF1214C0EA81FB818385811106C0E4
S113091034E0F32E0CC0FF24F39409C083E0F82ED6
S113092006C0283009F072CF98E02BE0D9CF8F2D84
S1130930DF91CF911F910F91FF90EF90DF90CF90B7
S1130940BF90AF9008952F923F924F925F926F9213
S11309507F928F929F92AF92BF92CF92DF92EF924B
S1130960FF920F931F93CF93DF93CDB7DEB7A49776
S11309700FB6F894DEBF0FBECDBF10927E01109269
S11309807D01009709F4CCC01C010E94C40080FDC5
S1130990C9C040E050E0BA01CE0101960E948B0329
S11309A08130F9F400E110E02EEB31E040E050E05A
S11309B0BA01CE0101960E947601882311F081E0EC
S11309C0B2C08D81811102C087E0ADC049845A84D0
S11309D06B847C84B301A201CE0101960E948B0337
S11309E003C0412C512C3201833049F38111ECCFE7
S11309F004E210E02DE030E0B301A201CE01019643
S1130A000E9476018111DBCF2A853B8540E050E0CE
S1130A10211531054105510521F4288D398D4A8D63
S1130A205B8DAC81B0E00E94DB0B6B017C014A81E1
S1130A305B8160E070E0440E551E661E771EF10176
S1130A404286538664867586298122838D809E80A2
S1130A50958284828F819885A0E0B0E00097A105FB
S1130A60B10521F48C899D89AE89BF8934E09694BF
S1130A7087943A95E1F7A12CB12C841B950BA60B16
S1130A80B70B8C199D09AE09BF09BC01CD016819CA
S1130A9079098A099B0930E040E050E00E94B90BD3
S1130AA0DA01C9010296A11DB11DF1018683978364
S1130AB0A087B187873FFFE09F07A105B10538F004
S1130AC0873F9F4FA105B10520F083E003C081E07B
S1130AD001C082E0F1018083833029F488A199A1C7
S1130AE0AAA1BBA107C0D701C601840D951DA61DEF
S1130AF0B71DF10186879787A08BB18B840C951C59
S1130B00A61CB71C8C0C9D1CAE1CBF1CF101828A58
S1130B10938AA48AB58A118230927E0120927D0143
S1130B2080E001C082E0A4960FB6F894DEBF0FBE49
S1130B30CDBFDF91CF911F910F91FF90EF90DF9088
S1130B40CF90BF90AF909F908F907F906F905F9069
S1130B504F903F902F9008950F931F93CF93DF935F
S1130B60CDB7DEB7EC970FB6F894DEBF0FBECDBF9E
S1130B7000917D0110917E0101151105C9F1AC01AF
S1130B80F8011182CE01C1969CA38BA3BE016F5FB5
S1130B907F4F40970E94D20381112DC08981882301
S1130BA049F18C8584FD26C08D899E89A0E0B0E042
S1130BB0DC01992788274B8D5C8D60E070E0842BE5
S1130BC0952BA62BB72BF801868F978FA0A3B1A3E3
S1130BD08D8D9E8DAF8DB8A1828F938FA48FB58F8D
S1130BE0168A178A108E118E81E0818380E003C0FB
S1130BF086E001C083E0EC960FB6F894DEBF0FBE2A
S1130C00CDBFDF91CF911F910F9108954F925F92C5
S1130C106F927F928F929F92AF92BF92CF92DF9208
S1130C20EF92FF920F931F93CF93DF934C016B01CD
S1130C305A01C0917D01D0917E01FA011182108286
S1130C40209709F4A1C0898180FFA0C08A8D9B8D63
S1130C50AC8DBD8D4E895F89688D798D841B950B14
S1130C60A60BB70BA60160E070E084179507A607F2
S1130C70B70708F46C013401412C32E0532EC1143F
S1130C80D10409F47CC08E899F89A88DB98DAC01EB
S1130C90BD01517066277727452B462B472BE1F57D
S1130CA0FA80FA94AC01BD0129E0769567955795D1
S1130CB047952A95D1F7F422C9F4892B8A2B8B2BDB
S1130CC029F46E8D7F8D88A199A106C06AA17BA1AC
S1130CD08CA19DA10E943E0262307105810591059F
S1130CE008F44FC06AA37BA38CA39DA36AA17BA134
S1130CF08CA19DA10E94CA01611571058105910510
S1130D0009F43FC0DC01CB018F0D911DA11DB11D64
S1130D108EA39FA3A8A7B9A72E893F893170C201CA
S1130D20821B930B76018C159D0508F47C014EA162
S1130D305FA168A579A58114910411F0C30102C0D3
S1130D4080E090E087010E94760181111AC08E89AB
S1130D509F89A88DB98D8E0D9F1DA11DB11D8E8BF0
S1130D609F8BA88FB98F6E0C7F1CCE18DF08F501FE
S1130D7080819181E80EF91EF182E08280CF80E0CB
S1130D8006C0198281E003C086E001C085E0DF91DE
S1130D90CF911F910F91FF90EF90DF90CF90BF9074
S1130DA0AF909F908F907F906F905F904F90089539
S1130DB00F931F93CF93DF93CDB7DEB7AC970FB6E6
S1130DC0F894DEBF0FBECDBF20917D0130917E012E
S1130DD0232B89F1AB018C01CE018196F801938319
S1130DE08283BE016F5F7F4FC8010E94D2038111CD
S1130DF01FC089818823C9F08C8584FD02C084E0EA
S1130E001BC08D899E89A0E0B0E0DC01992788276A
S1130E104B8D5C8D60E070E0842B952BA62BB72B5B
S1130E20F80184839583A683B783C8010E94F501E2
S1130E30833029F301C086E0AC960FB6F894DEBF88
S1130E400FBECDBFDF91CF911F910F910895CF9227
S1130E50DF92EF92FF920F931F93CF93DF93CDB75F
S1130E60DEB7AC970FB6F894DEBF0FBECDBF2091AE
S1130E707D0130917E01232B09F4BAC06B017C0102
S1130E80CE018196D70113969C938E931297672B6C
S1130E9021F4C7010E94F501B5C083E0D7011C9677
S1130EA04D915D916D917C911F974115510561059F
S1130EB0710511F1F701208131812F70332785E00D
S1130EC0220F331F8A95E1F700E210E0CE0101966C
S1130ED00E94760181118EC089818823D9F0853ED4
S1130EE029F08E3219F08C8583FF19C0C7010E9446
S1130EF01703882399F202C0882389F0F701148626
S1130F00158616861786833009F07CC08601075F34
S1130F101F4F5EC0F7011486158616861786860154
S1130F20075F1F4FD7011C964D915D916D917C9188
S1130F301F97452B462B472B09F44AC09E012F5F70
S1130F403F4FF6017196D9018D919D01803271F068
S1130F50853009F485EE0F5F1F4FA80141505109F8
S1130F60DA018C930E171F0771F701C0F801898508
S1130F70803299F09EE290839F012E5F3F4F8183E0
S1130F808A85803231F02F5F3F4F82838B85803298
S1130F9011F4F90102C0838334968C85D601189626
S1130FA08C9318974D8D5E8D6F8D78A14D935D93C5
S1130FB06D937C931397898D9A8D15969C938E933C
S1130FC014978F89988D17969C938E9316978F01FB
S1130FD0F8011082C7010E941703833099F4D701E6
S1130FE01C961D921D921D921C921F9780E00AC0B0
S1130FF086E008C0D7011C961D921D921D921C927A
S11310001F9781E0AC960FB6F894DEBF0FBECDBF3C
S1131010DF91CF911F910F91FF90EF90DF90CF90D0
S1131020089588E18093C10086E08093C20083E341
S113103090E09093C5008093C40008959091C000FF
S113104095FFFCCF8093C6000895CF93DF93FC01F6
S113105001900020E9F73197E81761F0EC018991DC
S1131060882319F00E941E08FACF8AE0DF91CF91FD
S11310700C941E08DF91CF91089599B180910001DD
S1131080981781F090930001809181018823D1F019
S113109094FF0AC01092810180917F018823F1F1AD
S11310A010927F0180E0089593FD05C081E0809354
S11310B07F0185E0089592FD05C081E080937F0162
S11310C084E0089530918201332331F092FF04C00B
S11310D01092820181E0089520918001222331F051
S11310E093FF04C01092800183E0089592FD06C02E
S11310F0311104C081E080938201D4CF94FD06C0F5
S1131100811104C091E090938101089593FDCACFA9
S11311102111C8CF81E080938001C4CF82E008957B
S11311201F93CF93DF93CDB7DEB7A6970FB6F8948E
S1131130DEBF0FBECDBF61E171E0CE0147960E94D4
S1131140D80610E081110EC0BE016F5F7F4FCE0143
S113115047960E942707811105C08A85882311F0CC
S11311601F5FF2CF812FA6960FB6F894DEBF0FBE95
S1131170CDBFDF91CF911F9108952F923F924F924F
S11311805F926F927F928F929F92AF92BF92CF9213
S1131190DF92EF92FF920F931F93CF93DF93CDB71C
S11311A0DEB7A8970FB6F894DEBF0FBECDBF082FE9
S11311B02DB63EB661E171E0CE0147960E94D80695
S11311C08111D1C010E0BE016F5F7F4FCE01479601
S11311D00E942707811106C08A85882319F01F5FA2
S11311E0101788F30E943A0BCE010A960E94250834
S11311F0CE010A960E94AC05882351F02FEF31EE00
S113120084E0215030408040E1F700C00000ABC0D2
S11312104DB65EB6EDB7FEB7F2500FB6F894FEBF0A
S11312200FBEEDBF2DB73EB72F5F3F4F390118A654
S11312301FA2C12CD12CAE01495D5F4F60E072E06A
S1131240C3010E940606811187C08FA198A5892B2E
S113125009F482C000E010E0EFA0F8A44301800E7E
S1131260911EA12CB12CF40181914F010E94480BD5
S1131270FFEFAF1ABF0A20E2A216B104A1F7319B17
S1131280FECF0E943D08833019F160F48130C1F033
S11312908230A1F5FFEF21EE34E0F15020403040E0
S11312A0E1F71DC08430F1F0853041F50E947D0BDB
S11312B09FEFE0E7F2E09150E040F040E1F71BC01F
S11312C03FEF91EEE4E031509040E040E1F707C099
S11312D09FEFE1EEF4E09150E040F040E1F700C010
S11312E000003BC00E948E0B2FEF30E782E02150BC
S11312F030408040E1F700C0000011C04A990DC0A1
S11313002FEFC21AD20A39EEC31633E0D30638F0EF
S11313104A9BFECF8FED8BB902C0C12CD12CC701E3
S1131320801B910B8132910510F080E290E0080F50
S1131330191F8FA198A50817190708F48DCF8115D7
S1131340924008F078CFFFEF21EE34E0F1502040D6
S11313503040E1F700C0000080E00FB6F8945EBEB4
S11313600FBE4DBE01C080E00FB6F8943EBE0FBE66
S11313702DBEA8960FB6F894DEBF0FBECDBFDF9189
S1131380CF911F910F91FF90EF90DF90CF90BF907E
S1131390AF909F908F907F906F905F904F903F9011
S11313A02F9008950F931F93CF93DF938C01C0E088
S11313B0D0E00C171D07C4F00E944D0B2FEF83ECF7
S11313C099E0215080409040E1F700C000000E9465
S11313D0650B2FEF83EC99E0215080409040E1F7BA
S11313E000C000002196E5CFDF91CF911F910F91AE
S11313F00895CF93DF93CDB7DEB7CA5AD1090FB69C
S1131400F894DEBF0FBECDBF8FE39CE90197F1F7DF
S113141000C0000082E28AB9EE24EA94EBB889E2C3
S113142087B9E8B89FEFE0E7F2E09150E040F04080
S1131430E1F700C0000040E8F42E8E010F5F1F4F5B
S1131440F8012F2D11922A95E9F783EE8AB90E94AB
S1131450110881E091E00E9425080E94C4008FE3F6
S11314609CE90197F1F700C000000E94F70A82E1AD
S113147091E00E9425080E941F0B84E291E00E94E3
S113148025089FEFE0E7F2E09150E040F040E1F7FB
S113149000C00000CE018F579F4F0E94A304D82E96
S11314A01F928F9383E391E09F938F931F930F93E6
S11314B00E94F50BC8010E942508F8012F2D1192F6
S11314C02A95E9F70F900F900F900F900F900F90BF
S11314D0D11082C0EBB80E949008E82E1F928F931F
S11314E080E491E09F938F931F930F930E94F50BD9
S11314F0C8010E942508F8011192FA94E9F70F90A7
S11315000F900F900F900F900F90FF24F39481E6AB
S1131510A82E81E0B82E90E8792E2DE6C22E21E087
S1131520D22E3AE4832E31E0932E8F2D0E94BD08F3
S1131530823069F0833051F1813091F5FA94F110E1
S113154001C0FE2C1F92FF929F928F9232C083E5BE
S113155091E00E9425088FEF99E6E8E181509040E0
S1131560E040E1F700C000000E943D088230E1F74E
S1131570FFEF21EE84E0F15020408040E1F700C00D
S113158000008AE591E00E942508CFCFF394EF1480
S113159010F4FF24F3941F92FF92BF92AF9209C0FC
S11315A0F394EF1410F4FF24F3941F92FF92DF924C
S11315B0CF921F930F930E94F50BC8010E94250838
S11315C0F801272D11922A95E9F70F900F900F90AB
S11315D00F900F900F90A9CF80E090E00E94A30499
S11315E083E090E00E94D2098FED8BB9FFCF43983E
S11315F087EA91E60197F1F700C000002A9A409A21
S1131600439A87EA91E60197F1F700C00000089534
S11316101F93CF93DF93182FEB012A9882E00E9447
S1131620AB0B812F0E94AB0B8D2F0E94AB0B8C2F29
S11316300E94AB0B2A9ADF91CF911F910895319BA1
S1131640FECF60E278E080E090E00E94080B89EF32
S113165090E00197F1F700C0000060E078E983E0D2
S113166090E00E94080B89EF90E00197F1F700C029
S11316700000089564E070E080E090E00E94080BB0
S113168083ED90E30197F1F700C000000C941F0B69
S113169040980E94AB0B409A089583E50E94480B42
S11316A08FEE0E94480B8EE60E94480B84E40E9451
S11316B0480B80E00E94480B80E00E94480B80E0C9
S11316C00E94480B80E00C94480B85E40E94480B70
S11316D088E70E94480B89E60E94480B84E70E9431
S11316E0480B80E00E94480B80E00E94480B80E099
S11316F00E94480B80E00C94480B809183016EEFAC
S1131700680F861708F460E06093830170E0962FF9
S11317108827682B792B8BE00C94080B809183012C
S113172062E0680F681710F06F3F09F46EEF609382
S1131730830170E0962F8827682B792B8BE00C941B
S1131740080B8EE284B9549A8FEE85B981E58CBD7D
S113175081E08DBD08958EBD0DB407FEFDCF0895C3
S11317608FEF8EBD0DB407FEFDCF8EB5089500003A
S11317700895A1E21A2EAA1BBB1BFD010DC0AA1FCE
S1131780BB1FEE1FFF1FA217B307E407F50720F0E6
S1131790A21BB30BE40BF50B661F771F881F991F61
S11317A01A9469F760957095809590959B01AC01AA
S11317B0BD01CF0108950E94E60BA59F900DB49F33
S11317C0900DA49F800D911D11240895A29FB00136
S11317D0B39FC001A39F700D811D1124911DB29F61
S11317E0700D811D1124911D0895AEE0B0E0EBEF62
S11317F0FBE00C94B60E0D891E8986E08C831A8357
S113180009838FEF9FE79E838D83AE01475E5F4F11
S11318106F89788DCE0101960E94170CEF81F885AF
S1131820E00FF11F10822E96E4E00C94D20EABE090
S1131830B0E0EDE1FCE00C94A80E6C017B018A01A0
S1131840FC0117821682838181FFCCC1CE010196EF
S11318503C01F6019381F70193FD859193FF8191FA
S11318607F01882309F4BAC1853239F493FD859147
S113187093FF81917F01853229F4B60190E00E94A3
S11318800E0EE7CF912C212C312CFFE1F315D8F06B
S11318908B3279F038F4803279F08332A1F4232D3D
S11318A020611DC08D3261F0803369F4232D2160E5
S11318B016C0832D8260382EE32DE4603E2E2AC0AC
S11318C0F32DF8601DC037FC2DC020ED280F2A3001
S11318D040F08E32B9F436FC81C1232D2064322EBF
S11318E019C036FE06C08AE0989E200D1124922E5F
S11318F011C0EAE02E9E200D1124222EF32DF06259
S11319003F2E08C08C3621F4832D8068382E02C007
S1131910883641F4F70193FD859193FF81917F010E
S11319208111B3CF982F9F7D9554933028F40C5F89
S11319301F4F9FE399830DC0833631F0833771F0D5
S1131940833509F059C021C0F801808189830E5F75
S11319501F4F88248394912C530113C02801F2E073
S11319604F0E511CF801A080B18036FE03C0692DD2
S113197070E002C06FEF7FEFC5010E94030E4C01BF
S11319808201F32DFF773F2E16C0280122E0420E7C
S1131990511CF801A080B18036FE03C0692D70E0AF
S11319A002C06FEF7FEFC5010E94F80D4C01F32DCB
S11319B0F0683F2E820133FC1BC0822D90E0881614
S11319C09906B0F4B60180E290E00E940E0E2A94CB
S11319D0F4CFF50137FC859137FE81915F01B601A3
S11319E090E00E940E0E21102A9421E0821A9108A0
S11319F08114910471F7E8C0843611F0893641F5F9
S1131A00F80137FE07C060817181828193810C5F88
S1131A101F4F08C060817181072E000C880B990B41
S1131A200E5F1F4FF32DFF763F2E97FF09C0909551
S1131A308095709561957F4F8F4F9F4FF0683F2E33
S1131A402AE030E0A3010E944A0E882E861845C081
S1131A50853731F4232D2F7EB22E2AE030E025C0C5
S1131A60932D997FB92E8F36C1F018F4883579F00B
S1131A70B5C0803719F0883721F0B0C0E92FE06194
S1131A80BE2EB4FE0DC0FB2DF460BF2E09C034FE83
S1131A900AC0292F2660B22E06C028E030E005C017
S1131AA020E130E002C020E132E0F801B7FE07C0D7
S1131AB060817181828193810C5F1F4F06C06081B8
S1131AC0718180E090E00E5F1F4FA3010E944A0ED7
S1131AD0882E8618FB2DFF773F2E36FE0DC0232D52
S1131AE02E7FA22E891458F434FE0BC032FC09C098
S1131AF0832D8E7EA82E05C0B82CA32C03C0B82C31
S1131B0001C0B92CA4FE0FC0FE01E80DF11D8081B7
S1131B10803321F49A2D997EA92E09C0A2FE06C015
S1131B20B394B39404C08A2D867809F0B394A3FCCB
S1131B3011C0A0FE06C0B21488F4280C922C9B1885
S1131B400EC0B21460F4B60180E290E00E940E0E62
S1131B50B394F7CFB21418F42B1802C0982C212C8C
S1131B60A4FE10C0B60180E390E00E940E0EA2FE17
S1131B7017C0A1FC03C088E790E002C088E590E0AC
S1131B80B6010CC08A2D867859F0A1FE02C08BE202
S1131B9001C080E2A7FC8DE2B60190E00E940E0E27
S1131BA0891438F4B60180E390E00E940E0E9A94F2
S1131BB0F7CF8A94F301E80DF11D8081B60190E01E
S1131BC00E940E0E8110F5CF222009F442CEB601F8
S1131BD080E290E00E940E0E2A94F6CFF6018681F0
S1131BE0978102C08FEF9FEF2B96E2E10C94C40E15
S1131BF0FC010590615070400110D8F780959095D4
S1131C008E0F9F1F0895FC016150704001900110D8
S1131C10D8F7809590958E0F9F1F08950F931F936B
S1131C20CF93DF93FB01238121FD03C08FEF9FEF4F
S1131C302CC022FF16C0468157812481358142176A
S1131C40530744F4A081B1819D012F5F3F4F31833D
S1131C5020838C93268137812F5F3F4F37832683E0
S1131C6014C08B01EC01FB010084F185E02D099582
S1131C70892BE1F6D80116968D919C9117970196C0
S1131C8017969C938E931697CE01DF91CF911F9157
S1131C900F910895FA01AA27283051F1203181F1DA
S1131CA0E8946F936E7F6E5F7F4F8F4F9F4FAF4F60
S1131CB0B1E03ED0B4E03CD0670F781F891F9A1F73
S1131CC0A11D680F791F8A1F911DA11D6A0F711D27
S1131CD0811D911DA11D20D009F468943F912AE033
S1131CE0269F11243019305D3193DEF6CF0108951B
S1131CF0462F4770405D4193B3E00FD0C9F7F6CF4C
S1131D00462F4F70405D4A3318F0495D31FD405213
S1131D10419302D0A9F7EACFB4E0A69597958795A9
S1131D2077956795BA95C9F7009761057105089588
S1131D309B01AC010A2E0694579547953795279534
S1131D40BA95C9F7620F731F841F951FA01D0895CC
S1131D502F923F924F925F926F927F928F929F92B7
S1131D60AF92BF92CF92DF92EF92FF920F931F93A5
S1131D70CF93DF93CDB7DEB7CA1BDB0B0FB6F89456
S1131D80DEBF0FBECDBF09942A88398848885F8496
S1131D906E847D848C849B84AA84B984C884DF8007
S1131DA0EE80FD800C811B81AA81B981CE0FD11DEB
S1131DB00FB6F894DEBF0FBECDBFED010895F894C1
S1051DC0FFCF4F
S1131DC2FF554152542072756E6E696E672E2E2E27
S1131DD22E0048617264776172652072657365745E
S1131DE22E2E2E00496E6974565331303131652ED0
S1131DF22E2E0070665F6D6F756E743A2025640036
S1131E0246696C65733A202564004261636B3A202B
S1131E12256400506C6179203100506C6179203264
S1131E2200466F72776172643A20256400446566E5
S10D1E3261756C743A202564000009
S9030000FC
