S012000053657269616C546573742E7372656312
S11300000C9434000C9449000C9449000C9449005D
S11300100C9449000C9449000C9449000C94490038
S11300200C9449000C9449000C9449000C94490028
S11300300C9449000C9449000C9449000C94490018
S11300400C9449000C9449000C9449000C94490008
S11300500C9449000C9449000C9449000C944900F8
S11300600C9449000C94490011241FBECFEFD8E032
S1130070DEBFCDBF11E0A0E0B1E0E8E1F1E002C0F5
S113008005900D92AC30B107D9F70E947A000C9418
S11300908A000C94000088E18093C10086E080937C
S11300A0C20087E690E09093C5008093C400089551
S11300B0E0ECF0E0908195FFFDCF8093C6000895B9
S11300C0CF93DF93FC0101900020E9F73197E81703
S11300D071F0FC01EC0121968081882329F00E94B3
S11300E0580089918111FBCF8AE00E945800DF916A
S11300F0CF9108950E944B0080E091E00E9460003F
S11301002FEF87EA91E6215080409040E1F700C04C
S10B01100000F2CFF894FFCFC8
S10F011848616C6C6F2057656C7400002B
S9030000FC
