S01200004D70332D506C617965722E7372656388
S11300000C9434000C9451000C9451000C94510045
S11300100C9451000C9451000C9451000C94510018
S11300200C9451000C9451000C9451000C94510008
S11300300C9451000C9451000C9451000C945100F8
S11300400C9451000C9451000C9451000C945100E8
S11300500C9451000C9451000C9451000C945100D8
S11300600C9451000C94510011241FBECFEFD8E022
S1130070DEBFCDBF11E0A0E0B1E0E8EAF9E402C0E0
S113008005900D92AA37B107D9F721E0AAE7B1E0AC
S113009001C01D92A438B207E1F70E943B160C94EC
S11300A0D2240C940000CF93DF93CDB7DEB727970B
S11300B00FB6F894DEBF0FBECDBF8B834C835D8338
S11300C06E837F838B8188237CF48B818F778B83F2
S11300D040E050E0BA0187E70E9453008A838A8196
S11300E0823010F08A8157C085E290E025E230E04A
S11300F0F90120812260FC0120830E94E01E85E238
S113010090E025E230E0F90120812D7FFC0120837D
S11301100E94E01E8B810E94C91E8C819D81AE814C
S1130120BF818B2F9927AA27BB270E94C91E8C81C8
S11301309D81AE81BF81CD01AA27BB270E94C91E24
S11301408C819D81AE81BF81892F9A2FAB2FBB27D4
S11301500E94C91E8C810E94C91E81E089838B8103
S1130160803411F485E989838B81883411F487E81C
S1130170898389810E94C91E8AE089830E94E01EC6
S11301808A838A81882334F489818150898389818F
S11301908823A1F78A8127960FB6F894DEBF0FBE95
S11301A0CDBFDF91CF9108950F931F93CF93DF932A
S11301B0CDB7DEB729970FB6F894DEBF0FBECDBF1B
S11301C080917A01882389F085E290E0FC018081A6
S11301D0882F90E082709927892B39F440E050E011
S11301E0BA0180E090E00E948E020E94A41E85E283
S11301F090E025E230E0F90120812260FC012083B7
S11302008AE0898305C00E94E01E89818150898328
S113021089818823C1F71B8240E050E0BA0180E461
S11302200E945300813009F0A4C04AEA51E060E022
S113023070E088E40E945300813009F063C01982A1
S11302400FC08981082F10E00E94E01E282FCE01E4
S11302500696800F911FFC01208389818F5F89831B
S11302608981843070F38885813009F082C0898562
S11302708A3A09F07EC080E197E29D838C8307C0AF
S11302800E94FC1E8C819D8101979D838C838C81AF
S11302909D81892B49F040E050E060E070E489EEF4
S11302A00E945300882361F78C819D81892B09F476
S11302B060C040E050E0BA018AE70E9453008823FE
S11302C009F057C019820FC08981082F10E00E94DD
S11302D0E01E282FCE010696800F911FFC0120837B
S11302E089818F5F89838981843070F38E81882F1F
S11302F090E080749927892B11F08CE001C084E090
S11303008B8337C040E050E0BA0189EE0E9453006D
S1130310823028F482E08B8389EE8A8304C081E0F2
S11303208B8381E48A8380E197E29D838C8307C079
S11303300E94FC1E8C819D8101979D838C838C81FE
S11303409D81892B41F040E050E0BA018A810E94EE
S11303505300882369F78C819D81892B49F040E003
S113036052E060E070E080E50E945300882309F0C9
S11303701B828B8180937A0185E290E025E230E054
S1130380F90120812260FC0120830E94E01E81E0AB
S11303909B81992309F080E029960FB6F894DEBF7B
S11303A00FBECDBFDF91CF911F910F9108950F9391
S11303B01F93CF93DF93CDB7DEB72E970FB6F89484
S11303C0DEBF0FBECDBF9E838D834F835887698761
S11303D07A873C872B871E870D8780917A01882F27
S11303E090E088709927892B89F48F819885A98555
S11303F0BA85072E79E0880F991FAA1FBB1F7A952B
S1130400D1F7702D8F839887A987BA8781E0898374
S11304108F819885A985BA85AC01BD0181E50E94CB
S11304205300882309F063C080E49CE99B838A839A
S11304300E94E01E8C838C818F3F49F48A819B81CA
S113044001979B838A838A819B81892B89F78C817D
S11304508E3F09F04CC08B859C8522273327281BAF
S1130460390B8D859E85A901481B590BCA018E5FE6
S11304709D4F9B838A838B859C85892B59F00E9491
S1130480E01E8B859C8501979C878B878B859C853B
S1130490892BA9F78D819E81892BA1F00D811E8165
S11304A0C80101969E838D830E94E01EF80180831B
S11304B08D859E8501979E878D878D859E85892B49
S11304C069F709C08D859E8501979E878D878D85E7
S11304D09E85892BB9F70E94E01E8A819B81019732
S11304E09B838A838A819B81892BA9F7198285E260
S11304F090E025E230E0F90120812260FC012083B4
S11305000E94E01E89812E960FB6F894DEBF0FBEBE
S1130510CDBFDF91CF911F910F910895CF93DF93BA
S1130520CDB7DEB729970FB6F894DEBF0FBECDBFA7
S11305309D838C834E835F836887798781E0898379
S11305408C819D81892B51F18E819F819B838A832C
S113055019C08C819D819C012F5F3F4F3D832C836B
S1130560FC0180810E94C91E80917B0190917C01D5
S1130570019790937C0180937B018A819B810197F1
S11305809B838A838A819B81892B31F080917B01B3
S113059090917C01892BE9F619827BC08E819F8121
S11305A0A885B985892B8A2B8B2B99F180917A01A7
S11305B0882F90E088709927892B89F48E819F81F8
S11305C0A885B985072E79E0880F991FAA1FBB1F3C
S11305D07A95D1F7702D8E839F83A887B9878E81F2
S11305E09F81A885B985AC01BD0188E50E945300AF
S11305F0882309F04EC08FEF0E94C91E8EEF0E941F
S1130600C91E80E092E090937C0180937B01198263
S113061040C080917B0190917C0102969B838A83E8
S113062003C080E00E94C91E8A819B819C012150E5
S113063031093B832A83892BA1F70E94E01E882F6E
S113064090E08F7199270597C9F488E893E19B831B
S11306508A8307C00E94FC1E8A819B8101979B8329
S11306608A830E94E01E8F3F21F08A819B81892B1F
S113067089F78A819B81892B09F0198285E290E0B0
S113068025E230E0F90120812260FC0120830E94F0
S1130690E01E898129960FB6F894DEBF0FBECDBF48
S11306A0DF91CF910895CF93DF93CDB7DEB728972D
S11306B00FB6F894DEBF0FBECDBF9C838B837E83C1
S11306C06D8358874F838B819C819A8389830AC069
S11306D089819A819C012F5F3F4F3A8329832D8121
S11306E0FC0120838F8198859C0121503109388732
S11306F02F83892B69F7000028960FB6F894DEBF84
S11307000FBECDBFDF91CF910895CF93DF93CDB7C7
S1130710DEB72C970FB6F894DEBF0FBECDBF988717
S11307208F837A8769875C874B878F8198859A83C3
S1130730898389859A859C838B831E821D82000010
S11307408B859C859C01215031093C872B87892B03
S113075001F189819A819C012F5F3F4F3A8329835C
S1130760FC018081282F30E08B819C81AC014F5F9C
S11307705F4F5C834B83FC018081882F90E0A9014B
S1130780481B590BCA019E838D838D819E81892BC1
S1130790B9F28D819E812C960FB6F894DEBF0FBE00
S11307A0CDBFDF91CF9108950F931F93CF93DF9324
S11307B0CDB7DEB760970FB6F894DEBF0FBECDBFDE
S11307C06D877E878F87988B80917D0190917E01C4
S11307D09A8389838D859E85AF85B8890297A10503
S11307E0B10580F089819A81FC0126813781408599
S11307F051858D859E85AF85B88982179307A40797
S1130800B50728F081E090E0A0E0B0E026C189813E
S11308109A81FC018081882F90E08230910509F44F
S1130820ADC08330910509F4D8C0019709F011C116
S11308308D859E859C838B838B819C8196958795E2
S11308402B813C81820F931F9C838B838B819C81A2
S113085091709E838D838B819C81892F99278695A6
S11308609C838B838D819E818F3F9140F9F0898198
S11308709A81FC0122853385448555858B819C8131
S1130880CC01A0E0B0E0820F931FA41FB51F2D81FF
S11308903E81FE01399602E010E0AC01BD01CF01BA
S11308A00E94D701882309F441C0D3C089819A8169
S11308B0FC0122853385448555858B819C81CC013F
S11308C0A0E0B0E0820F931FA41FB51FFE0139966C
S11308D001E010E02FEF31E0AC01BD01CF010E9437
S11308E0D701882309F0AEC089819A81FC01228551
S11308F03385448555858B819C81CC01A0E0B0E093
S1130900820F931FA41FB51FAC01BD014F5F5F4F42
S11309106F4F7F4FCE010996019601E010E020E071
S113092030E00E94D701882309F08EC0CE010996D9
S1130930FC018081918198878F838D859E85AF8509
S1130940B88981709927AA27BB27892B8A2B8B2BDF
S113095061F08F819885929582958F7089279F7019
S11309608927CC01A0E0B0E078C08F819885CC01C4
S1130970A0E0B0E09F70AA27BB276FC08D859E853D
S11309809927BC01660F771F89819A81FC01228512
S11309903385448555858D859E85AF85B889892F96
S11309A09A2FAB2FBB27820F931FA41FB51FFE01E5
S11309B0399602E010E09B01AC01BD01CF010E9419
S11309C0D701882309F042C0CE010996FC01808139
S11309D09181CC01A0E0B0E040C08D859E858F77E9
S11309E09927BC01660F771F660F771F89819A814B
S11309F0FC0122853385448555858D859E85AF858B
S1130A00B889689416F8B695A7959795879516941E
S1130A10D1F7820F931FA41FB51FFE01399604E07E
S1130A2010E09B01AC01BD01CF010E94D7018823D6
S1130A3079F4CE010996FC0180819181A281B38170
S1130A40BF700BC0000005C0000003C0000001C05F
S1130A50000081E090E0A0E0B0E0BC01CD01609630
S1130A600FB6F894DEBF0FBECDBFDF91CF911F91BB
S1130A700F910895CF93DF9300D000D000D0CDB76D
S1130A80DEB76B837C838D839E8380917D019091FF
S1130A907E019A8389838B819C81AD81BE8102977B
S1130AA0A109B1098B839C83AD83BE8389819A811B
S1130AB0FC0186819781A085B1859C01AD012250FE
S1130AC03109410951098B819C81AD81BE81821715
S1130AD09307A407B50720F080E090E0DC011DC077
S1130AE089819A81FC018281282F30E040E050E026
S1130AF08B819C81AD81BE81BC01CD010E948C2182
S1130B009B01AC0189819A81FC0182899389A48922
S1130B10B589820F931FA41FB51FBC01CD01269672
S1130B200FB6F894DEBF0FBECDBFDF91CF9108950D
S1130B30CF93DF93CDB7DEB728970FB6F894DEBF17
S1130B400FBECDBF98878F8380917D0190917E01E8
S1130B509E838D838F819885FC01118210828F8101
S1130B609885FC0184819581A681B78189839A83C4
S1130B70AB83BC8389819A81AB81BC810197A10538
S1130B80B10581F08D819E81FC01268137814085EC
S1130B90518589819A81AB81BC8182179307A4070F
S1130BA0B50710F081E046C089819A81AB81BC8190
S1130BB0892B8A2B8B2B89F48D819E81FC0180816A
S1130BC0833059F48D819E81FC0186859785A089A7
S1130BD0B18989839A83AB83BC832F8138858981CA
S1130BE09A81AB81BC81F90180879187A287B38701
S1130BF089819A81AB81BC81892B8A2B8B2B59F0FB
S1130C0089819A81AB81BC81BC01CD010E943A05E6
S1130C10DC01CB0107C08D819E81FC01868597850F
S1130C20A089B1892F813885F90184879587A687A2
S1130C30B78780E028960FB6F894DEBF0FBECDBF0D
S1130C40DF91CF910895CF93DF93CDB7DEB72A9785
S1130C500FB6F894DEBF0FBECDBF9A878987809107
S1130C607D0190917E019A83898389859A85FC010F
S1130C708081918101969C838B838B819C81892BBC
S1130C8059F089859A85FC0184859585A685B78563
S1130C90892B8A2B8B2B11F483E096C08B819C814A
S1130CA08F709927892B09F087C089859A85FC0163
S1130CB084859585A685B7850196A11DB11D2985D5
S1130CC03A85F90184879587A687B78789859A85A8
S1130CD0FC0180859185A285B385892B8A2B8B2B7A
S1130CE069F489819A81FC01248135818B819C81FD
S1130CF08217930708F460C083E066C08B819C81EF
S1130D00929582958F7089279F70892729813A81CE
S1130D10F9012281222F30E02150310982239323CB
S1130D20892B09F049C089859A85FC0180859185C4
S1130D30A285B385BC01CD010E94D403DC01CB01A3
S1130D408D839E83AF83B8878D819E81AF81B88563
S1130D500297A105B10510F481E036C089819A811A
S1130D60FC0126813781408551858D819E81AF812B
S1130D70B88582179307A407B50710F083E024C051
S1130D8029853A858D819E81AF81B885F901808757
S1130D909187A287B3878D819E81AF81B885BC017D
S1130DA0CD010E943A05DC01CB0129853A85F90180
S1130DB084879587A687B78789859A852B813C8107
S1130DC0FC013183208380E02A960FB6F894DEBFBD
S1130DD00FBECDBFDF91CF9108950F931F93CF9393
S1130DE0DF9300D000D000D0CDB7DEB79C838B83D7
S1130DF07E836D838B819C810E9498058983898180
S1130E00882311F089815BC08B819C81FC018081E6
S1130E1091818F7099279C01220F331F229532955F
S1130E20307F3227207F32278B819C81FC0184858F
S1130E309585A685B785ED81FE8100E210E0AC01C1
S1130E40BD01CF010E94D701982F81E0992309F4B5
S1130E5080E089838981882371F58D819E81FC01DD
S1130E6080818A838A81882319F483E0898326C058
S1130E708D819E810B96FC018081882F90E0887083
S1130E809927892B71F48B819C81FC012281338108
S1130E908D819E814BE050E0B9010E948503892B2E
S1130EA061F08B819C810E94230689838981882338
S1130EB009F4AACF03C0000001C00000898126966E
S1130EC00FB6F894DEBF0FBECDBFDF91CF911F9157
S1130ED00F9108950F931F93CF93DF93CDB7DEB790
S1130EE027970FB6F894DEBF0FBECDBF9D838C83CA
S1130EF07F836E8383E0898350C08C819D81FC0154
S1130F00808191818F7099279C01220F331F229534
S1130F103295307F3227207F32278C819D81FC01DE
S1130F2084859585A685B785EE81FF8100E210E072
S1130F30AC01BD01CF010E94D701982F81E0992314
S1130F4009F480E0898389818823A1F58E819F81BA
S1130F50FC0180818A838A81882319F483E0898350
S1130F602EC08E819F810B96FC0180818F738B83B1
S1130F708A81853E51F08A818E3239F08B81882FA7
S1130F8090E088709927892BB9F08C819D810E940B
S1130F90230689838981882389F48C819D81FC01BE
S1130FA084859585A685B785892B8A2B8B2B09F09B
S1130FB0A4CF05C0000003C0000001C00000898167
S1130FC0882339F08C819D81FC0114861586168650
S1130FD01786898127960FB6F894DEBF0FBECDBF62
S1130FE0DF91CF911F910F910895CF93DF93CDB7E8
S1130FF0DEB72C970FB6F894DEBF0FBECDBF9A872D
S113100089877C876B8789859A85FC018281938196
S11310109E838D838D819E814BE050E060E270E081
S11310200E9453031C828C818B8388E08A838B8586
S11310309C85FC018081918198878F838B8191E0CD
S1131040980F9B83882F90E02F813885820F931F00
S1131050FC01808189838981813260F189818F32A9
S113106049F189818E3221F09C818A81981758F048
S11310708A818830F9F489818E32E1F488E08C83A6
S11310808BE08A8316C08981813630F089818B3761
S113109018F48981805289838C8191E0980F9C8314
S11310A0882F90E02D813E81820F931F2981FC01BE
S11310B02083C4CF8B81882F90E02F813885280F1F
S11310C0391F8B859C85FC01318320838D819E8112
S11310D00B9621E03981313208F020E0FC012083B5
S11310E080E02C960FB6F894DEBF0FBECDBFDF9123
S11310F0CF910895CF93DF93CDB7DEB72A970FB67C
S1131100F894DEBF0FBECDBF9E838D8378876F8337
S11311105A87498789859A8509969C838B838D8113
S11311209E81FC0184859585A685B785892B8A2BAC
S11311308B2B09F486C019821FC08981882F90E007
S11311402F813885820F931FFC0180818A838A81D5
S11311508032B1F08A81853011F485EE8A838B81E7
S11311609C819C012F5F3F4F3C832B832A81FC0190
S1131170208389818F5F898389818830F0F201C05F
S113118000008F8198850896FC018081803261F18E
S11311908B819C819C012F5F3F4F3C832B832EE2EC
S11311A0FC01208388E089831AC08981882F90E01C
S11311B02F813885820F931FFC0180818A838A8165
S11311C0803289F08B819C819C012F5F3F4F3C834F
S11311D02B832A81FC01208389818F5F8983898104
S11311E08B3018F301C000008F819885FC012385A2
S11311F089859A85FC0120878F8198854C96FC010E
S113120080819181A281B38129853A85F901808306
S11312109183A283B3838F8198854896FC012081B2
S1131220318189859A85FC01358324838F81988552
S11312304696FC012081318189859A85FC0137839A
S113124026838B819C81FC01108200002A960FB6B4
S1131250F894DEBF0FBECDBFDF91CF910895CF9339
S1131260DF93CDB7DEB727970FB6F894DEBF0FBE76
S1131270CDBF9B838A837D836C835F834E8305C04C
S11312808E819F8101969F838E838E819F81FC0135
S113129080818032A9F38E819F81FC0180818F320D
S11312A029F48E819F8101969F838E838A819B81FD
S11312B0FC0114821582168217828E819F81FC01A3
S11312C08081813250F48A819B810E9498058983B0
S11312D08C819D81FC01108268C09E012A5F3F4F72
S11312E08A819B81B9010E94F507898389818823BA
S11312F009F056C02C813D818A819B81B9010E94ED
S1131300ED0689838981882391F08981833009F0EE
S113131049C08A819B81FC01828193810B96FC01E7
S11313208081882309F03EC084E089833BC08A81A0
S11313309B81FC01828193810B96FC01808188232F
S113134099F58C819D810B96FC018081882F90E01A
S113135080719927892B19F484E0898326C08C81B4
S11313609D814496FC0180819181CC01A0E0B0E094
S1131370AC01332722278C819D814A96FC01808110
S11313809181CC01A0E0B0E0822B932BA42BB52B50
S11313902A813B81F90184839583A683B7839DCFFA
S11313A0000003C0000001C00000898127960FB629
S11313B0F894DEBF0FBECDBFDF91CF9108950F9398
S11313C01F93CF93DF9300D000D000D0CDB7DEB70A
S11313D09A8389834B835C836D837E838B819C8119
S11313E0AD81BE81E981FA8102E010E02EEF31E0A7
S11313F0AC01BD01CF010E94D701882311F083E025
S113140041C089819A81FC018081918185359A4A04
S113141011F082E037C08B819C81AD81BE81E9816E
S1131420FA8102E010E026E330E0AC01BD01CF0117
S11314300E94D701882351F489819A81FC0180811B
S113144091818634914411F480E01CC08B819C818D
S1131450AD81BE81E981FA8102E010E022E530E04D
S1131460AC01BD01CF010E94D701882351F48981C9
S11314709A81FC01808191818634914411F480E049
S113148001C081E026960FB6F894DEBF0FBECDBF33
S1131490DF91CF911F910F910895EF92FF920F93D7
S11314A01F93CF93DF93CDB7DEB7E7970FB6F894CA
S11314B0DEBF0FBECDBF9FAB8EAB10927E011092EC
S11314C07D018EA99FA9892B11F480E0B0C10E94EF
S11314D0D400882F90E081709927892B11F082E045
S11314E0A6C11A821B821C821D828A819B81AC81C7
S11314F0BD819E012E5E3F4FAC01BD01C9010E941A
S1131500DF0989838981813081F58A819B81AC815E
S1131510BD81FE01729600E110E02EEB31E0AC01DA
S1131520BD01CF010E94D701882319F083E089838C
S11315301CC08E898823C9F0CE0142960896FC010E
S113154080819181A281B3818A839B83AC83BD8393
S11315508A819B81AC81BD819E012E5E3F4FAC018F
S1131560BD01C9010E94DF0989838981833011F497
S113157081E05DC18981882311F087E058C18A81A7
S11315809B81AC81BD81FE01729604E210E02DE0E6
S113159030E0AC01BD01CF010E94D701882311F0D6
S11315A081E045C1CE0142960996FC01808191817A
S11315B0CC01A0E0B0E08E839F83A887B9878E8199
S11315C09F81A885B985892B8A2B8B2B61F4CE0149
S11315D042964796FC0180819181A281B3818E83DA
S11315E09F83A887B9878D89882F90E0A0E0B0E019
S11315F02E813F8148855985BC01CD010E948C21F3
S1131600DC01CB018E839F83A887B987CE014296E4
S11316100196FC01808191819C0140E050E08A8127
S11316209B81AC81BD81820F931FA41FB51F2EA97E
S11316303FA9F90182879387A487B5872A898EA950
S11316409FA9FC012283CE0142960496FC012081CD
S113165031818EA99FA9FC0135832483CE01429652
S11316600696FC0180819181CC01A0E0B0E08A87DC
S11316709B87AC87BD878A859B85AC85BD85892B77
S11316808A2B8B2B61F4CE0142964396FC01808118
S11316909181A281B3818A879B87AC87BD87CE0164
S11316A042960196FC0180819181CC01A0E0B0E0DA
S11316B02A853B854C855D85281B390B4A0B5B0BC2
S11316C08E819F81A885B985281B390B4A0B5B0B3A
S11316D08EA99FA9FC0184819581929582958F7032
S11316E089279F708927CC01A0E0B0E079018A01A5
S11316F0E81AF90A0A0B1B0BD801C7012EA93FA946
S1131700F9012281222F30E040E050E0BC01CD01FC
S11317100E949C21DA01C9010296A11DB11D8E8788
S11317209F87A88BB98B2EA93FA98E859F85A889F1
S1131730B989F90186839783A087B18782E0898379
S11317408E859F85A889B989873F9F40A105B105EA
S113175010F481E089838E859F85A889B989873FA4
S11317609F4FA105B10510F083E089838EA99FA93D
S11317702981FC0120838981833081F4CE01429642
S11317804F96FC0180819181A281B3812EA93FA94A
S1131790F90186879787A08BB18B16C08EA99FA964
S11317A0FC0122853385448555858E819F81A885DA
S11317B0B985820F931FA41FB51F2EA93FA9F90154
S11317C086879787A08BB18B8EA99FA9FC01228560
S11317D03385448555858E819F81A885B985280FD9
S11317E0391F4A1F5B1F8EA99FA9FC018481958123
S11317F0929582958F7089279F708927CC01A0E0EC
S1131800B0E0820F931FA41FB51F2EA93FA9F901B1
S1131810828B938BA48BB58B8EA99FA9FC0111821B
S11318208EA99FA990937E0180937D0180E0E79625
S11318300FB6F894DEBF0FBECDBFDF91CF911F91DD
S11318400F91FF90EF900895CF93DF93CDB7DEB75C
S1131850C154D1090FB6F894DEBF0FBECDBF9E01AF
S1131860205C3F4FF9019183808380917D019091A9
S11318707E019A83898389819A81892B11F486E078
S113188064C089819A81FC011182CE0144969F83B0
S11318908E83CE01805C9F4FFC01408151819E016B
S11318A0205E3F4FCE010496B9010E942F098B831D
S11318B08B81882311F08B8148C088A1882339F05B
S11318C08BA5882F90E080719927892B11F083E0F4
S11318D03CC0CE0180964496FC0180819181CC016C
S11318E0A0E0B0E0AC0133272227CE0180964A96CF
S11318F0FC0180819181CC01A0E0B0E0822B932B8C
S1131900A42BB52B29813A81F901868F978FA0A347
S1131910B1A3CE0180964C96FC0180819181A28175
S1131920B38129813A81F901828F938FA48FB58F76
S113193089819A81FC01168A178A108E118E8981F9
S11319409A8121E0FC01218380E0CF5BDF4F0FB659
S1131950F894DEBF0FBECDBFDF91CF910895EF9213
S1131960FF920F931F93CF93DF93CDB7DEB76A97A0
S11319700FB6F894DEBF0FBECDBF9E8B8D8B788FD4
S11319806F8B5A8F498F8D899E899C838B8380911D
S11319907D0190917E019E838D83898D9A8DFC01BA
S11319A0118210828D819E81892B11F486E054C1AD
S11319B08D819E81FC018181882F90E0817099271F
S11319C0892B11F485E048C18D819E81FC01228D13
S11319D0338D448D558D8D819E81FC018689978937
S11319E0A08DB18D79018A01E81AF90A0A0B1B0B43
S11319F0D801C7018F839887A987BA878F89988D63
S1131A009C0140E050E08F819885A985BA858217B2
S1131A109307A407B50708F00EC18F819885988FA6
S1131A208F8B09C18D819E81FC0186899789A08D48
S1131A30B18D9170AA27BB27892B8A2B8B2B09F098
S1131A4081C08D819E81FC0186899789A08DB18D8D
S1131A50072E79E0B695A795979587957A95D1F74E
S1131A60702D282F8D819E81FC01828181508223DB
S1131A708B878B858823C1F58D819E81FC018689A6
S1131A809789A08DB18D892B8A2B8B2B41F48D8165
S1131A909E81FC01868D978DA0A1B1A10DC08D8181
S1131AA09E81FC0182A193A1A4A1B5A1BC01CD0199
S1131AB00E94D403DC01CB018C879D87AE87BF874E
S1131AC08C859D85AE85BF850297A105B10508F477
S1131AD0B9C02D813E818C859D85AE85BF85F90178
S1131AE082A393A3A4A3B5A38D819E81FC0182A1AB
S1131AF093A1A4A1B5A1BC01CD010E943A05DC01CA
S1131B00CB01888B998BAA8BBB8B88899989AA89ED
S1131B10BB89892B8A2B8B2B09F496C08B85282FA4
S1131B2030E040E050E088899989AA89BB89820F16
S1131B30931FA41FB51F2D813E81F90186A397A38E
S1131B40A0A7B1A78D819E81FC0186899789A08D6C
S1131B50B18D917020E032E07901E81AF90AC701E9
S1131B609A83898329813A818F89988D8217930773
S1131B7020F48F89988D9A8389838D819E81FC01BD
S1131B8086899789A08DB18DAC0151708D819E811C
S1131B90FC0186A197A1A0A5B1A52D893E89232B7F
S1131BA019F0EB81FC8102C0E0E0F0E029813A8188
S1131BB089019A01AC01BD01CF010E94D7018C8B30
S1131BC08C89882309F042C08D819E81FC0126897D
S1131BD03789408D518D89819A81CC01A0E0B0E094
S1131BE0820F931FA41FB51F2D813E81F901868B9F
S1131BF0978BA08FB18F2B813C8189819A81820F31
S1131C00931F9C838B832F89388D89819A817901D5
S1131C10E81AF90AC701988F8F8B898D9A8DFC0178
S1131C202081318189819A81280F391F898D9A8D6C
S1131C30FC01318320838F89988D892B09F0F2CEA2
S1131C4080E00AC0000003C0000001C000008D81D4
S1131C509E81FC01118281E06A960FB6F894DEBF82
S1131C600FBECDBFDF91CF911F910F91FF90EF90E9
S1131C700895CF93DF93CDB7DEB7E3970FB6F8940B
S1131C80DEBF0FBECDBF99AB88AB7BAB6AAB809197
S1131C907D0190917E019B838A838A819B81892B1C
S1131CA019F486E0898350C088A999A99E012C5F04
S1131CB03F4FFC01338322834AA95BA99E01205F25
S1131CC03F4F88A999A9B9010E942F098983898165
S1131CD08823A9F58889882351F18B8D882F90E07A
S1131CE080719927892B09F1CE0140964496FC0115
S1131CF080819181CC01A0E0B0E0AC0133272227A0
S1131D00CE0140964A96FC0180819181CC01A0E0ED
S1131D10B0E0822B932BA42BB52B28A939A9F90168
S1131D2084839583A683B78302C084E089838981F1
S1131D30882329F488A999A90E949805898389810F
S1131D40833011F484E089838981E3960FB6F89493
S1131D50DEBF0FBECDBFDF91CF910895CF93DF9348
S1131D60CDB7DEB7E3970FB6F894DEBF0FBECDBF95
S1131D7099AB88AB7BAB6AAB80917D0190917E017E
S1131D809B838A838A819B81892B19F486E08983CA
S1131D9043C088A999A99E012C5F3F4FFC0133835E
S1131DA022838AA99BA9892B31F488A999A90E9425
S1131DB09805898331C09E01205F3F4F88A999A966
S1131DC0B9010E946A0789838981833041F488A913
S1131DD099A9FC01148615861686178619828981AD
S1131DE08823D1F44AA95BA99E01205F3F4F88A9AB
S1131DF099A9B9010E947A0888A999A90E94230681
S1131E0089838981833041F488A999A9FC011486C6
S1131E1015861686178619828981E3960FB6F8947B
S1131E20DEBF0FBECDBFDF91CF910895CF93DF9377
S1131E30CDB7DEB78AE290E023EEFC0120830000F8
S1131E40DF91CF910895CF93DF93CDB7DEB781ECC7
S1131E5090E028E1FC01208382EC90E026E0FC0184
S1131E60208384EC90E023E330E0FC013183208381
S1131E700000DF91CF910895CF93DF931F92CDB7E8
S1131E80DEB78983000080EC90E0FC018081882F1C
S1131E9090E080729927892BB1F386EC90E0298138
S1131EA0FC01208300000F90DF91CF910895CF9320
S1131EB0DF9300D000D0CDB7DEB79C838B838B81BA
S1131EC09C810E94DF21898389818823B1F01A8251
S1131ED003C08A810E943C0F8B819C819C012F5FEF
S1131EE03F4F3C832B83FC0180818A838A81882332
S1131EF081F78AE00E943C0F01C000000F900F9010
S1131F000F900F90DF91CF910895CF93DF931F929D
S1131F10CDB7DEB789E290E0FC01808189838091AE
S1131F2000019981981711F480E085C0898180931C
S1131F30000180918001882399F08981882F90E0A5
S1131F4088709927892B61F0109280018091820119
S1131F50882321F01092820180E06DC082E06BC082
S1131F60809180018823C1F08981882F90E084705A
S1131F709927892B29F481E08093820185E05BC055
S1131F808981882F90E080719927892B29F481E039
S1131F908093820184E04FC080917F01882359F0AF
S1131FA08981882F90E084709927892B21F01092E1
S1131FB07F0181E040C080918101882359F08981AB
S1131FC0882F90E080719927892B21F0109281014C
S1131FD083E031C08981882F90E084709927892B10
S1131FE049F480917F01882329F481E080937F0163
S1131FF080E021C08981882F90E088709927892BFF
S113200049F480918001882329F481E08093800140
S113201080E011C08981882F90E080719927892BF5
S113202049F480918101882329F481E0809381011E
S113203080E001C080E00F90DF91CF910895CF93AD
S1132040DF93CDB7DEB7AA970FB6F894DEBF0FBE05
S1132050CDBF81E091E09B838A831C822A813B81EE
S1132060CE010596B9010E94390E8C8319828C81A8
S1132070882399F49E012B5E3F4FCE010596B9014A
S11320800E94AE0E8C838C81882339F48E8D882334
S113209021F089818F5F8983EDCF8981AA960FB65C
S11320A0F894DEBF0FBECDBFDF91CF910895CF92DC
S11320B0DF92EF92FF920F931F93CF93DF93CDB7ED
S11320C0DEB7CC59D1090FB6F894DEBF0FBECDBF31
S11320D09E0124563F4FF90180830DB71EB7188621
S11320E081E091E09A87898729853A85CE018C58C9
S11320F09F4FB9010E94390E88878885882309F586
S113210019829E012C573F4FCE018C589F4FB90125
S11321100E94AE0E888788858823A9F4CE018C5747
S11321209F4FFC018185882371F089818F5F8983AA
S1132130CE0184569F4F2981FC018081281708F322
S113214002C080E083C50E941E1CCE018C579F4FA5
S113215009960E94570FCE018C579F4F09960E94F3
S1132160240C88878885882309F476C00E941E1E63
S113217080E090E0AAEFB4E48AA79BA7ACA7BDA730
S113218020E030E04AE755E46AA57BA58CA59DA52F
S11321900E941F21DC01CB018EA79FA7A8ABB9AB7E
S11321A020E030E040E85FE36EA57FA588A999A907
S11321B00E94FF1F88232CF481E090E09BAB8AAB44
S11321C03FC020E03FEF4FE757E46EA57FA588A905
S11321D099A90E941A2118164CF520E030E040E23B
S11321E051E46AA57BA58CA59DA50E941F21DC0155
S11321F0CB01BC01CD010E947620DC01CB019BAB5D
S11322008AAB0FC080E991E09DAB8CAB8CA99DA9F2
S11322100197F1F79DAB8CAB8AA99BA901979BAB66
S11322208AAB8AA99BA9892B69F714C06EA57FA5DF
S113223088A999A90E947620DC01CB019BAB8AABCB
S11322408AA99BA99FAB8EAB8EA99FA90197F1F791
S11322509FAB8EAB80E0FAC480E092E0988B8F87CE
S11322608DB79EB76C018F85988901979A8B898B5E
S11322708F8598892DB73EB7281B390B0FB6F89474
S11322803EBF0FBE2DBF8DB79EB701969C8B8B8B27
S1132290CE0186569F4FFC01118210821D8A8B89C4
S11322A09C89AE0146565F4F2F853889B9010E943B
S11322B0AF0C88878885882309F0BFC4CE01865671
S11322C09F4FFC0180819181892B09F4B8C41B8242
S11322D01A821D821C82CE0186569F4FFC012081EA
S11322E031818A819B81A901481B590BCA018197BD
S11322F028F080E290E09D838C830EC0CE01865648
S11323009F4FFC01208131818A819B81A901481B57
S1132310590BCA019D838C831F821E8213C02E8198
S11323203F818A819B81820F931F2B893C89820F75
S1132330931FFC0180810E94FE1D8E819F81019666
S11323409F838E838E819F8180974CF32A813B816A
S11323508C819D81820F931F9B838A8386E290E008
S1132360FC018081882F90E082709927892BB1F33A
S11323700E94850F882F90E08330910509F44FC1A6
S1132380843091053CF48130910561F0029709F4A1
S113239089C07EC38430910509F4FEC1059709F410
S11323A0B9C276C380E090E0A8ECB2E48B879C8746
S11323B0AD87BE8720E030E04AE755E46B857C8535
S11323C08D859E850E941F21DC01CB0188AF99AFCA
S11323D0AAAFBBAF20E030E040E85FE368AD79AD81
S11323E08AAD9BAD0E94FF1F88232CF481E090E00E
S11323F09DAF8CAF3FC020E03FEF4FE757E468AD9F
S113240079AD8AAD9BAD0E941A2118164CF520E0D7
S113241030E040E251E46B857C858D859E850E9489
S11324201F21DC01CB01BC01CD010E947620DC011F
S1132430CB019DAF8CAF0FC080E991E09FAF8EAF11
S11324408EAD9FAD0197F1F79FAF8EAF8CAD9DAD73
S113245001979DAF8CAF8CAD9DAD892B69F720C0E2
S113246068AD79AD8AAD9BAD0E947620DC01CB01CD
S11324709DAF8CAFCE01805C9F4F2CAD3DADFC0178
S113248031832083CE01805C9F4FFC018081918148
S11324900197F1F79E01205C3F4FF90191838083FE
S11324A081E0CFC380E090E0A8ECB2E48E8F9F8FF0
S11324B0A8A3B9A37E01F2E4EF0EF11C20E030E002
S11324C04AE755E46E8D7F8D88A199A10E941F2152
S11324D0DC01CB01F70180839183A283B383CE0116
S11324E08E5B9F4F20E030E040E85FE3FC016081B9
S11324F07181828193810E94FF1F88234CF4CE0155
S11325008A5B9F4F21E030E0FC01318320836BC064
S1132510CE018E5B9F4F20E03FEF4FE757E4FC0175
S113252060817181828193810E941A2118160CF0B6
S113253047C020E030E040E251E46E8D7F8D88A1F9
S113254099A10E941F21DC01CB017E01F6E4EF0E6C
S1132550F11CBC01CD010E947620DC01CB01F70106
S11325609183808324C0CE01885B9F4F20E931E0B2
S1132570FC0131832083CE01885B9F4FFC01808165
S113258091810197F1F79E01285B3F4FF9019183F7
S11325908083CE018A5B9F4F9E012A5B3F4FF901E6
S11325A02081318121503109FC0131832083CE0106
S11325B08A5B9F4FFC0180819181892BA1F62DC0FC
S11325C07E01F6E4EF0EF11CCE018E5B9F4FFC0101
S11325D060817181828193810E947620DC01CB012C
S11325E0F70191838083CE01865B9F4F9E012A5B16
S11325F03F4FF90120813181FC0131832083CE01D9
S1132600865B9F4FFC01808191810197F1F79E01C8
S1132610265B3F4FF9019183808382E012C380E0FF
S113262090E0A8ECB2E48AA39BA3ACA3BDA37E0173
S1132630FCE4EF0EF11C20E030E04AE755E46AA127
S11326407BA18CA19DA10E941F21DC01CB01F7017C
S113265080839183A283B383CE01845B9F4F20E068
S113266030E040E85FE3FC01608171818281938105
S11326700E94FF1F88234CF4CE01805B9F4F21E012
S113268030E0FC01318320836BC0CE01845B9F4F1B
S113269020E03FEF4FE757E4FC01608171818281C4
S11326A093810E941A2118160CF047C020E030E0F4
S11326B040E251E46AA17BA18CA19DA10E941F214B
S11326C0DC01CB017E01F0E5EF0EF11CBC01CD0174
S11326D00E947620DC01CB01F7019183808324C022
S11326E0CE018E5A9F4F20E931E0FC0131832083D3
S11326F0CE018E5A9F4FFC01808191810197F1F7A1
S11327009E012E5A3F4FF90191838083CE01805B55
S11327109F4F9E01205B3F4FF90120813181215061
S11327203109FC0131832083CE01805B9F4FFC0182
S113273080819181892BA1F62DC07E01F0E5EF0EF9
S1132740F11CCE01845B9F4FFC0160817181828109
S113275093810E947620DC01CB01F7019183808371
S1132760CE018C5A9F4F9E01205B3F4FF90120817F
S11327703181FC0131832083CE018C5A9F4FFC01AF
S1132780808191810197F1F79E012C5A3F4FF90105
S11327909183808383E055C20E946F1E80E090E0A5
S11327A0A8E4B2E48EA39FA3A8A7B9A77E01F6E587
S11327B0EF0EF11C20E030E04AE755E46EA17FA162
S11327C088A599A50E941F21DC01CB01F701808314
S11327D09183A283B383CE018A5A9F4F20E030E0D5
S11327E040E85FE3FC0160817181828193810E94F2
S11327F0FF1F88234CF4CE01865A9F4F21E030E01E
S1132800FC01318320836BC0CE018A5A9F4F20E0A4
S11328103FEF4FE757E4FC0160817181828193812E
S11328200E941A2118160CF047C020E030E040E264
S113283051E46EA17FA188A599A50E941F21DC0106
S1132840CB017E01FAE5EF0EF11CBC01CD010E9423
S11328507620DC01CB01F7019183808324C0CE0173
S1132860845A9F4F20E931E0FC0131832083CE015B
S1132870845A9F4FFC01808191810197F1F79E0159
S1132880245A3F4FF90191838083CE01865A9F4F8A
S11328909E01265A3F4FF90120813181215031098F
S11328A0FC0131832083CE01865A9F4FFC01808135
S11328B09181892BA1F6ECC07E01FAE5EF0EF11CA3
S11328C0CE018A5A9F4FFC0160817181828193817C
S11328D00E947620DC01CB01F70191838083CE0135
S11328E0825A9F4F9E01265A3F4FF9012081318120
S11328F0FC0131832083CE01825A9F4FFC018081E9
S113290091810197F1F79E01225A3F4FF90191837A
S11329108083BEC00E943E1E80E090E0A8E4B2E442
S11329208E8B9F8BA88FB98F7E01F0E6EF0EF11C82
S113293020E030E04AE755E46E897F89888D998DDF
S11329400E941F21DC01CB01F70180839183A283C4
S1132950B383CE01805A9F4F20E030E040E85FE32C
S1132960FC0160817181828193810E94FF1F882311
S11329704CF4CE018C599F4F21E030E0FC013183AF
S113298020836BC0CE01805A9F4F20E03FEF4FE77A
S113299057E4FC0160817181828193810E941A2134
S11329A018160CF047C020E030E040E251E46E8994
S11329B07F89888D998D0E941F21DC01CB017E01C6
S11329C0F4E6EF0EF11CBC01CD010E947620DC017F
S11329D0CB01F7019183808324C0CE018A599F4F94
S11329E020E931E0FC0131832083CE018A599F4FD5
S11329F0FC01808191810197F1F79E012A593F4F93
S1132A00F90191838083CE018C599F4F9E012C59EB
S1132A103F4FF9012081318121503109FC0131837B
S1132A202083CE018C599F4FFC0180819181892B99
S1132A30A1F62DC07E01F4E6EF0EF11CCE01805A02
S1132A409F4FFC0160817181828193810E94762075
S1132A50DC01CB01F70191838083CE0188599F4F1C
S1132A609E012C593F4FF90120813181FC013183B2
S1132A702083CE0188599F4FFC0180819181019769
S1132A80F1F79E0128593F4FF9019183808300009B
S1132A90CE0186569F4FFC01808191812A813B8122
S1132AA02817390708F415CCCE0186569F4FFC0130
S1132AB0208131818F8598892817390708F0EFCB59
S1132AC080E090E0A8ECB2E48A8F9B8FAC8FBD8F3E
S1132AD07E01FAE6EF0EF11C20E030E04AE755E40F
S1132AE06A8D7B8D8C8D9D8D0E941F21DC01CB0115
S1132AF0F70180839183A283B383CE0186599F4FCC
S1132B0020E030E040E85FE3FC0160817181828174
S1132B1093810E94FF1F88234CF4CE0182599F4F5A
S1132B2021E030E0FC01318320836BC0CE01865963
S1132B309F4F20E03FEF4FE757E4FC016081718134
S1132B40828193810E941A2118160CF047C020E05C
S1132B5030E040E251E46A8D7B8D8C8D9D8D0E9426
S1132B601F21DC01CB017E01FEE6EF0EF11CBC014E
S1132B70CD010E947620DC01CB01F7019183808393
S1132B8024C0CE0180599F4F20E931E0FC013183FC
S1132B902083CE0180599F4FFC0180819181019750
S1132BA0F1F79E0120593F4FF90191838083CE01B3
S1132BB082599F4F9E0122593F4FF9012081318153
S1132BC021503109FC0131832083CE0182599F4F6A
S1132BD0FC0180819181892BA1F62DC07E01FEE646
S1132BE0EF0EF11CCE0186599F4FFC01608171816B
S1132BF0828193810E947620DC01CB01F7019183CD
S1132C008083CE018E589F4F9E0122593F4FF90178
S1132C1020813181FC0131832083CE018E589F4F66
S1132C20FC01808191810197F1F79E012E583F4F5D
S1132C30F9019183808380E004C0000001C000009A
S1132C4080E00FB6F894DEBE0FBECDBE0FB6F8948A
S1132C501EBF0FBE0DBFC456DF4F0FB6F894DEBFC4
S1132C600FBECDBFDF91CF911F910F91FF90EF90D9
S1132C70DF90CF9008950F931F93CF93DF93CDB739
S1132C80DEB7C350D1400FB6F894DEBF0FBECDBF40
S1132C9080E090E0A0E2B1E48E839F83A887B987A7
S1132CA020E030E04AE755E46E817F81888599858C
S1132CB00E941F21DC01CB018CAF9DAFAEAFBFAF33
S1132CC020E030E040E85FE36CAD7DAD8EAD9FADBC
S1132CD00E94FF1F88234CF4CE01805C9F4F21E0AB
S1132CE030E0FC013183208361C020E03FEF4FE7F7
S1132CF057E46CAD7DAD8EAD9FAD0E941A211816C0
S1132D000CF046C020E030E040E251E46E817F8167
S1132D10888599850E941F21DC01CB018E01005C0E
S1132D201F4FBC01CD010E947620DC01CB01F801CC
S1132D309183808324C0CE018E5B9F4F20E931E0D4
S1132D40FC0131832083CE018E5B9F4FFC01808187
S1132D5091810197F1F79E012E5B3F4FF901918319
S1132D608083CE01805C9F4F9E01205C3F4FF90120
S1132D702081318121503109FC0131832083CE012E
S1132D80805C9F4FFC0180819181892BA1F628C032
S1132D908E01005C1F4F6CAD7DAD8EAD9FAD0E946A
S1132DA07620DC01CB01F80191838083CE018C5B1A
S1132DB09F4F9E01205C3F4FF90120813181FC012E
S1132DC031832083CE018C5B9F4FFC0180819181F4
S1132DD00197F1F79E012C5B3F4FF90191838083AA
S1132DE08AE290E022E2FC0120838BE290E02FEF64
S1132DF0FC01208387E290E029E2FC01208388E241
S1132E0090E02FEFFC01208380E090E0A8E4B2E49E
S1132E108C879D87AE87BF8720E030E04AE755E482
S1132E206C857D858E859F850E941F21DC01CB01E9
S1132E308AAB9BABACABBDAB20E030E040E85FE3DA
S1132E406AA97BA98CA99DA90E94FF1F88232CF441
S1132E5081E090E09FAB8EAB3FC020E03FEF4FE7B7
S1132E6057E46AA97BA98CA99DA90E941A21181666
S1132E704CF520E030E040E251E46C857D858E85A0
S1132E809F850E941F21DC01CB01BC01CD010E9462
S1132E907620DC01CB019FAB8EAB0FC080E991E0C3
S1132EA099AF88AF88AD99AD0197F1F799AF88AF25
S1132EB08EA99FA901979FAB8EAB8EA99FA9892B41
S1132EC069F714C06AA97BA98CA99DA90E947620E0
S1132ED0DC01CB019FAB8EAB8EA99FA99BAF8AAFC0
S1132EE08AAD9BAD0197F1F79BAF8AAFCE01865AAD
S1132EF09F4F20E8FC01322F11923A95E9F70E9486
S1132F00160F0E94230F82E091E00E94570F1A8649
S1132F108FEF8B870E94D4008A8780E090E0A0E244
S1132F20B1E4888B998BAA8BBB8B20E030E04AE715
S1132F3055E4688979898A899B890E941F21DC016B
S1132F40CB0188A799A7AAA7BBA720E030E040E857
S1132F505FE368A579A58AA59BA50E94FF1F882326
S1132F602CF481E090E09DA78CA73FC020E03FEFC8
S1132F704FE757E468A579A58AA59BA50E941A2165
S1132F8018164CF520E030E040E251E46889798974
S1132F908A899B890E941F21DC01CB01BC01CD01E0
S1132FA00E947620DC01CB019DA78CA70FC080E98D
S1132FB091E09FA78EA78EA59FA50197F1F79FA7E4
S1132FC08EA78CA59DA501979DA78CA78CA59DA5D3
S1132FD0892B69F714C068A579A58AA59BA50E94C9
S1132FE07620DC01CB019DA78CA78CA59DA599AB70
S1132FF088AB88A999A90197F1F799AB88AB0E948E
S1133000AC1C83E191E00E94570F0E94101B85E2E3
S113301091E00E94570F80E090E0A8E4B2E48A8F28
S11330209B8FAC8FBD8F20E030E04AE755E46A8D7A
S11330307B8D8C8D9D8D0E941F21DC01CB018E8F99
S11330409F8FA8A3B9A320E030E040E85FE36E8D32
S11330507F8D88A199A10E94FF1F88232CF481E011
S113306090E09BA38AA33FC020E03FEF4FE757E4E3
S11330706E8D7F8D88A199A10E941A2118164CF596
S113308020E030E040E251E46A8D7B8D8C8D9D8D93
S11330900E941F21DC01CB01BC01CD010E947620DE
S11330A0DC01CB019BA38AA30FC080E991E09DA31F
S11330B08CA38CA19DA10197F1F79DA38CA38AA158
S11330C09BA101979BA38AA38AA19BA1892B69F742
S11330D014C06E8D7F8D88A199A10E947620DC0199
S11330E0CB019BA38AA38AA19BA19FA38EA38EA19C
S11330F09FA10197F1F79FA38EA3CE0186529F4F04
S11331000E944D0A8B878B85882F90E0292F2F935F
S11331108F9384E391E0892F8F9384E391E08F93DD
S1133120CE01865A9F4F292F2F938F930E94E82117
S11331300F900F900F900F900F900F90CE01865A22
S11331409F4F0E94570FCE01865A9F4F40E850E090
S113315060E070E00E94D8218B85882309F05BC26F
S11331608BE290E02FEFFC0120830E941F108C8BD8
S113317081E089838C89882F90E0292F2F938F9366
S113318081E491E0892F8F9381E491E08F93CE01C4
S1133190865A9F4F292F2F938F930E94E8210F90D7
S11331A00F900F900F900F900F90CE01865A9F4F63
S11331B00E94570FCE01865A9F4F40E850E060E0CE
S11331C070E00E94D82189810E9457108D8B8D89CF
S11331D0882F90E082309105C9F18330910509F47C
S11331E0B3C1019709F0E3C1898181508983898141
S11331F0882311F48C8989838981882F90E0292F71
S11332002F938F938BE491E0892F8F938BE491E03C
S11332108F93CE01865A9F4F292F2F938F930E940D
S1133220E8210F900F900F900F900F900F90CE0108
S1133230865A9F4F0E94570FCE01865A9F4F40E8EF
S113324050E060E070E00E94D821E4C184E591E0A0
S11332500E94570F80E090E0AAEFB3E48A839B8337
S1133260AC83BD838E010A5B1F4F20E030E04AE748
S113327055E46A817B818C819D810E941F21DC0140
S1133280CB01F80180839183A283B383CE018A5B4F
S11332909F4F20E030E040E85FE3FC0160817181F2
S11332A0828193810E94FF1F88234CF4CE01865BA8
S11332B09F4F21E030E0FC013183208369C0CE01BF
S11332C08A5B9F4F20E03FEF4FE757E4FC016081AA
S11332D07181828193810E941A2118160CF046C0D4
S11332E020E030E040E251E46A817B818C819D8161
S11332F00E941F21DC01CB018E01065B1F4FBC0124
S1133300CD010E947620DC01CB01F80191838083FA
S113331024C0CE01845B9F4F20E931E0FC0131835E
S11333202083CE01845B9F4FFC01808191810197B2
S1133330F1F79E01245B3F4FF90191838083CE0115
S1133340865B9F4F9E01265B3F4FF90120813181AF
S113335021503109FC0131832083CE01865B9F4FCC
S1133360FC0180819181892BA1F62CC08E01065B22
S11333701F4FCE018A5B9F4FFC0160817181828166
S113338093810E947620DC01CB01F8019183808334
S1133390CE01825B9F4F9E01265B3F4FF901208146
S11333A03181FC0131832083CE01825B9F4FFC017C
S11333B0808191810197F1F79E01225B3F4FF901D2
S11333C09183808300000E94850F8230E1F780E0C2
S11333D090E0A8ECB2E48E8B9F8BA88FB98F8E01FE
S11333E0005B1F4F20E030E04AE755E46E897F8997
S11333F0888D998D0E941F21DC01CB01F801808307
S11334009183A283B383CE01805B9F4F20E030E0A1
S113341040E85FE3FC0160817181828193810E94B5
S1133420FF1F88234CF4CE018C5A9F4F21E030E0DB
S1133430FC013183208369C0CE01805B9F4F20E073
S11334403FEF4FE757E4FC016081718182819381F2
S11334500E941A2118160CF046C020E030E040E229
S113346051E46E897F89888D998D0E941F21DC012A
S1133470CB018E010C5A1F4FBC01CD010E94762056
S1133480DC01CB01F8019183808324C0CE018A5AE8
S11334909F4F20E931E0FC0131832083CE018A5A19
S11334A09F4FFC01808191810197F1F79E012A5A77
S11334B03F4FF90191838083CE018C5A9F4F9E0127
S11334C02C5A3F4FF9012081318121503109FC01EF
S11334D031832083CE018C5A9F4FFC0180819181DE
S11334E0892BA1F62CC08E010C5A1F4FCE01805B94
S11334F09F4FFC0160817181828193810E947620BB
S1133500DC01CB01F80191838083CE01885A9F4F5F
S11335109E012C5A3F4FF90120813181FC013183F6
S11335202083CE01885A9F4FFC01808191810197AD
S1133530F1F79E01285A3F4FF901918380838BE56F
S113354091E00E94570F66C089818F5F89839981BA
S11335508C89891710F481E089838981882F90E010
S1133560292F2F938F9382E691E0892F8F9382E600
S113357091E08F93CE01865A9F4F292F2F938F93DB
S11335800E94E8210F900F900F900F900F900F90D2
S1133590CE01865A9F4F0E94570FCE01865A9F4FE5
S11335A040E850E060E070E00E94D82133C0898197
S11335B08F5F898399818C89891710F481E08983CD
S11335C08981882F90E0292F2F938F938EE691E0A5
S11335D0892F8F938EE691E08F93CE01865A9F4F69
S11335E0292F2F938F930E94E8210F900F900F9013
S11335F00F900F900F90CE01865A9F4F0E94570F45
S1133600CE01865A9F4F40E850E060E070E00E948F
S1133610D8210000D8CD80E090E00E944D0AFFCF71
S1133620CF93DF93CDB7DEB76C970FB6F894DEBFB8
S11336300FBECDBF86E290E0FC018081882F90E030
S113364082709927892BB1F360E278E080E090E002
S11336500E94C81D80E090E0A0E8BFE389839A83BC
S1133660AB83BC8320E030E04AE753E469817A818C
S11336708B819C810E941F21DC01CB018B8B9C8B55
S1133680AD8BBE8B20E030E040E85FE36B897C8942
S11336908D899E890E94FF1F88232CF481E090E08D
S11336A0988F8F8B3FC020E03FEF4FE757E46B8943
S11336B07C898D899E890E941A2118164CF520E078
S11336C030E040E251E469817A818B819C810E94DF
S11336D01F21DC01CB01BC01CD010E947620DC015D
S11336E0CB01988F8F8B0FC089E190E09A8F898FDF
S11336F0898D9A8D0197F1F79A8F898F8F89988D8B
S11337000197988F8F8B8F89988D892B69F714C0B7
S11337106B897C898D899E890E947620DC01CB018E
S1133720988F8F8B8F89988D9C8F8B8F8B8D9C8D91
S11337300197F1F79C8F8B8F60E078E983E090E04C
S11337400E94C81D80E090E0A0E8BFE38D839E83C3
S1133750AF83B88720E030E04AE753E46D817E818F
S11337608F8198850E941F21DC01CB0189879A876C
S1133770AB87BC8720E030E040E85FE369857A8569
S11337808B859C850E94FF1F88232CF481E090E0A8
S11337909E878D873FC020E03FEF4FE757E4698560
S11337A07A858B859C850E941A2118164CF520E099
S11337B030E040E251E46D817E818F8198850E94E2
S11337C01F21DC01CB01BC01CD010E947620DC016C
S11337D0CB019E878D870FC089E190E0988B8F87FE
S11337E08F8598890197F1F7988B8F878D859E85B2
S11337F001979E878D878D859E85892B69F714C0D7
S113380069857A858B859C850E947620DC01CB01B5
S11338109E878D878D859E859A8B898B89899A89C8
S11338200197F1F79A8B898B00006C960FB6F89488
S1133830DEBF0FBECDBFDF91CF910895CF93DF934D
S1133840CDB7DEB72E970FB6F894DEBF0FBECDBF4F
S113385064E070E080E090E00E94C81D80E090E0A9
S1133860A8E4B2E489839A83AB83BC8320E030E08C
S11338704AE753E469817A818B819C810E941F21EC
S1133880DC01CB018D839E83AF83B88720E030E0D9
S113389040E85FE36D817E818F8198850E94FF1FE0
S11338A088232CF481E090E09A8789873FC020E048
S11338B03FEF4FE757E46D817E818F8198850E94A9
S11338C01A2118164CF520E030E040E251E46981F9
S11338D07A818B819C810E941F21DC01CB01BC0178
S11338E0CD010E947620DC01CB019A8789870FC025
S11338F089E190E09C878B878B859C850197F1F704
S11339009C878B8789859A8501979A87898789857A
S11339109A85892B69F714C06D817E818F81988582
S11339200E947620DC01CB019A87898789859A8554
S11339309E878D878D859E850197F1F79E878D875C
S11339400E94101B00002E960FB6F894DEBF0FBE27
S1133950CDBFDF91CF910895CF93DF93CDB7DEB77D
S11339606C970FB6F894DEBF0FBECDBF88E290E02F
S113397028E230E0F9012081277FFC01208380E0E8
S113398090E0A8ECB2E489839A83AB83BC8320E003
S113399030E04AE753E469817A818B819C810E94FB
S11339A01F21DC01CB018B8B9C8BAD8BBE8B20E06C
S11339B030E040E85FE36B897C898D899E890E94B1
S11339C0FF1F88232CF481E090E0988F8F8B3FC0F9
S11339D020E03FEF4FE757E46B897C898D899E890E
S11339E00E941A2118164CF520E030E040E251E420
S11339F069817A818B819C810E941F21DC01CB012A
S1133A00BC01CD010E947620DC01CB01988F8F8B05
S1133A100FC089E190E09A8F898F898D9A8D0197E3
S1133A20F1F79A8F898F8F89988D0197988F8F8B53
S1133A308F89988D892B69F714C06B897C898D894E
S1133A409E890E947620DC01CB01988F8F8B8F8911
S1133A50988D9C8F8B8F8B8D9C8D0197F1F79C8F0C
S1133A608B8F85E290E025E230E0F901208124602B
S1133A70FC01208388E290E028E230E0F901208113
S1133A802160FC01208388E290E028E230E0F90123
S1133A9020812860FC01208380E090E0A8ECB2E45F
S1133AA08D839E83AF83B88720E030E04AE753E4F8
S1133AB06D817E818F8198850E941F21DC01CB015D
S1133AC089879A87AB87BC8720E030E040E85FE3D2
S1133AD069857A858B859C850E94FF1F88232CF439
S1133AE081E090E09E878D873FC020E03FEF4FE765
S1133AF057E469857A858B859C850E941A2118165E
S1133B004CF520E030E040E251E46D817E818F810C
S1133B1098850E941F21DC01CB01BC01CD010E94CC
S1133B207620DC01CB019E878D870FC089E190E070
S1133B30988B8F878F8598890197F1F7988B8F875A
S1133B408D859E8501979E878D878D859E85892B82
S1133B5069F714C069857A858B859C850E947620D7
S1133B60DC01CB019E878D878D859E859A8B898B01
S1133B7089899A890197F1F79A8B898B00006C9651
S1133B800FB6F894DEBF0FBECDBFDF91CF9108957D
S1133B90CF93DF9300D000D0CDB7DEB78A837C8388
S1133BA06B8385E290E025E230E0F90120812B7FF0
S1133BB0FC01208382E00E94C91E8A810E94C91EE2
S1133BC08B819C81892F9927898389810E94C91EB1
S1133BD08B81898389810E94C91E85E290E025E258
S1133BE030E0F90120812460FC01208300000F9063
S1133BF00F900F900F90DF91CF910895CF93DF93A3
S1133C001F92CDB7DEB7898388E290E028E230E0E6
S1133C10F90120812E7FFC01208389810E94C91E25
S1133C2088E290E028E230E0F90120812160FC0183
S1133C30208300000F90DF91CF910895CF93DF93FD
S1133C40CDB7DEB783E50E94FE1D8FEE0E94FE1DF8
S1133C508EE60E94FE1D84E40E94FE1D80E00E9408
S1133C60FE1D80E00E94FE1D80E00E94FE1D80E09B
S1133C700E94FE1D0000DF91CF910895CF93DF9342
S1133C8000D01F92CDB7DEB79091830182E0292F37
S1133C90281B822F8983809183019981891708F4D5
S1133CA019828981809383011B821A828981882FDA
S1133CB090E0382F22278981882F90E0822B932B44
S1133CC09B838A838A819B81BC018BE00E94C81DEF
S1133CD000000F900F900F90DF91CF910895CF9334
S1133CE0DF9300D01F92CDB7DEB79091830182E0BD
S1133CF0890F8983809183019981981710F48EEF3D
S1133D00898389818F3F11F48EEF89838981809320
S1133D1083011B821A828981882F90E0382F222701
S1133D208981882F90E0822B932B9B838A838A81BD
S1133D309B81BC018BE00E94C81D00000F900F9076
S1133D400F90DF91CF910895CF93DF93CDB7DEB776
S1133D5084E290E02EE2FC0120838AE290E02AE2F1
S1133D6030E0F90120812061FC01208385E290E0AC
S1133D702FEEFC0120838CE490E021E5FC012083FC
S1133D808DE490E021E0FC0120830000DF91CF91DD
S1133D900895CF93DF931F92CDB7DEB789838EE466
S1133DA090E02981FC01208300008DE490E0FC0177
S1133DB080818823D4F700000F90DF91CF9108957C
S1133DC0CF93DF931F92CDB7DEB719828EE490E0D4
S1133DD02FEFFC01208300008DE490E0FC01808142
S1133DE08823D4F78EE490E0FC0180818983898163
S1133DF00F90DF91CF910895CF93DF93CDB7DEB7C6
S1133E00A0970FB6F894DEBF0FBECDBF80E090E060
S1133E10A0E8BFE389839A83AB83BC832BEA3AEAA5
S1133E204AEA5EE369817A818B819C810E941F2129
S1133E30DC01CB018D839E83AF83B88720E030E023
S1133E4040E85EE369817A818B819C810E941F2115
S1133E50DC01CB0189879A87AB87BC8720E030E0FF
S1133E6040E85FE36D817E818F8198850E94FF1F0A
S1133E7088231CF481E08D87B2C020E03FEF4FE738
S1133E8057E469857A858B859C850E941A211816CA
S1133E900CF07BC020E030E04AE754E469817A8189
S1133EA08B819C810E940420DC01CB018E879F873B
S1133EB0A88BB98B20E030E04AE753E46E857F8518
S1133EC0888999890E941F21DC01CB018A8B9B8BF5
S1133ED0AC8BBD8B20E030E040E85FE36A897B89EE
S1133EE08C899D890E94FF1F88232CF481E090E037
S1133EF09F8B8E8B3FC020E03FEF4FE757E46A89EA
S1133F007B898C899D890E941A2118164CF520E022
S1133F1030E040E251E46E857F85888999890E946A
S1133F201F21DC01CB01BC01CD010E947620DC0104
S1133F30CB019F8B8E8B0FC089E190E0998F888F86
S1133F40888D998D0197F1F7998F888F8E899F8934
S1133F5001979F8B8E8B8E899F89892B69F73FC030
S1133F606A897B898C899D890E947620DC01CB013A
S1133F709F8B8E8B8E899F899B8F8A8F8A8D9B8D39
S1133F800197F1F79B8F8A8F2AC020E030E04FE73A
S1133F9053E46D817E818F8198850E941A211816C1
S1133FA0ACF469857A858B859C850E947620DC013A
S1133FB0CB019D8F8C8F8C8D9D8D9F8F8E8F8E8D41
S1133FC09F8D0197F1F79F8F8E8F0FC06D817E813A
S1133FD08F8198850E947620DC01CB018D878D85A9
S1133FE088A388A18A95F1F788A30000A0960FB64C
S1133FF0F894DEBF0FBECDBFDF91CF9108950E942C
S1134000A52008F481E008950E9418200C94E02073
S11340100E94D92058F00E94D22040F029F45F3F3A
S113402029F00C94C92051110C9414210C94CF2024
S11340300E94F12068F39923B1F3552391F3951B62
S1134040550BBB27AA2762177307840738F09F5FB5
S11340505F4F220F331F441FAA1FA9F335D00E2E22
S11340603AF0E0E832D091505040E695001CCAF78F
S11340702BD0FE2F29D0660F771F881FBB1F261752
S113408037074807AB07B0E809F0BB0B802DBF0129
S1134090FF2793585F4F3AF09E3F510578F00C94F8
S11340A0C9200C9414215F3FE4F3983ED4F3869521
S11340B077956795B795F7959F5FC9F7880F911D19
S11340C09695879597F90895E1E0660F771F881F05
S11340D0BB1F621773078407BA0720F0621B730BB8
S11340E0840BBA0BEE1F88F7E09508950E94F9201F
S11340F088F09F5798F0B92F9927B751B0F0E1F0A5
S1134100660F771F881F991F1AF0BA95C9F714C054
S1134110B13091F00E941321B1E008950C94132161
S1134120672F782F8827B85F39F0B93FCCF386958D
S113413077956795B395D9F73EF4909580957095EA
S113414061957F4F8F4F9F4F0895990F0008550F2A
S1134150AA0BE0E8FEEF16161706E807F907C0F009
S113416012161306E407F50798F0621B730B840B11
S1134170950B39F40A2661F0232B242B252B21F4EB
S113418008950A2609F4A140A6958FEF811D811D8B
S1134190089597F99F6780E870E060E008959FEFC5
S11341A080EC089500240A941616170618060906CA
S11341B0089500240A941216130614060506089599
S11341C0092E0394000C11F4882352F0BB0F40F421
S11341D0BF2B11F460FF04C06F5F7F4F8F4F9F4F61
S11341E0089557FD9058440F551F59F05F3F71F0E3
S11341F04795880F97FB991F61F09F3F79F087954A
S11342000895121613061406551FF2CF4695F1DFD2
S113421008C0161617061806991FF1CF8695710562
S1134220610508940895E894BB2766277727CB0196
S113423097F908950E94A52008F48FEF08950E942D
S113424032210C94E0200E94D22038F00E94D92020
S113425020F0952311F00C94C9200C94CF20112444
S11342600C9414210E94F12070F3959FC1F3950FD3
S113427050E0551F629FF001729FBB27F00DB11DE6
S1134280639FAA27F00DB11DAA1F649F6627B00D76
S1134290A11D661F829F2227B00DA11D621F739F5F
S11342A0B00DA11D621F839FA00D611D221F749F6D
S11342B03327A00D611D231F849F600D211D822FB4
S11342C0762F6A2F11249F5750409AF0F1F08823DB
S11342D04AF0EE0FFF1FBB1F661F771F881F915008
S11342E05040A9F79E3F510580F00C94C9200C94CE
S11342F014215F3FE4F3983ED4F386957795679550
S1134300B795F795E7959F5FC1F7FE2B880F911D31
S11343109695879597F90895DB018F939F930E9453
S1134320BE21BF91AF91A29F800D911DA39F900DBF
S1134330B29F900D11240895A1E21A2EAA1BBB1B53
S1134340FD010DC0AA1FBB1FEE1FFF1FA217B3075D
S1134350E407F50720F0A21BB30BE40BF50B661F73
S1134360771F881F991F1A9469F760957095809537
S113437090959B01AC01BD01CF0108950E94C92114
S1134380A59F900DB49F900DA49F800D911D1124A5
S11343900895A29FB001B39FC001A39F700D811D1A
S11343A01124911DB29F700D811D1124911D08953A
S11343B0DC0101C06D9341505040E0F70895FC01C9
S11343C001900020E9F7809590958E0F9F1F089526
S11343D0AEE0B0E0EEEEF1E20C94A9240D891E8962
S11343E086E08C831A8309838FEF9FE79E838D83F6
S11343F0AE01475E5F4F6F89788DCE0101960E94B2
S11344000A22EF81F885E00FF11F10822E96E4E076
S11344100C94C524ABE0B0E0E0E1F2E20C949B2400
S11344206C017B018A01FC0117821682838181FF62
S1134430CCC1CE0101963C01F6019381F70193FDB5
S1134440859193FF81917F01882309F4BAC1853254
S113445039F493FD859193FF81917F01853229F48D
S1134460B60190E00E940124E7CF912C212C312C3D
S1134470FFE1F315D8F08B3279F038F4803279F01B
S11344808332A1F4232D20611DC08D3261F080336D
S113449069F4232D216016C0832D8260382EE32D0C
S11344A0E4603E2E2AC0F32DF8601DC037FC2DC0F9
S11344B020ED280F2A3040F08E32B9F436FC81C149
S11344C0232D2064322E19C036FE06C08AE0989E41
S11344D0200D1124922E11C0EAE02E9E200D1124ED
S11344E0222EF32DF0623F2E08C08C3621F4832D4A
S11344F08068382E02C0883641F4F70193FD859117
S113450093FF81917F018111B3CF982F9F7D9554A3
S1134510933028F40C5F1F4F9FE399830DC08336BB
S113452031F0833771F0833509F059C021C0F801A7
S1134530808189830E5F1F4F88248394912C5301BB
S113454013C02801F2E04F0E511CF801A080B18085
S113455036FE03C0692D70E002C06FEF7FEFC50126
S11345600E94F6234C018201F32DFF773F2E16C0E3
S1134570280122E0420E511CF801A080B18036FED1
S113458003C0692D70E002C06FEF7FEFC5010E9488
S1134590EB234C01F32DF0683F2E820133FC1BC04A
S11345A0822D90E088169906B0F4B60180E290E07E
S11345B00E9401242A94F4CFF50137FC859137FE3B
S11345C081915F01B60190E00E94012421102A9498
S11345D021E0821A91088114910471F7E8C08436AD
S11345E011F0893641F5F80137FE07C06081718109
S11345F0828193810C5F1F4F08C060817181072EF7
S1134600000C880B990B0E5F1F4FF32DFF763F2E86
S113461097FF09C090958095709561957F4F8F4F56
S11346209F4FF0683F2E2AE030E0A3010E943D2412
S1134630882E861845C0853731F4232D2F7EB22E5F
S11346402AE030E025C0932D997FB92E8F36C1F032
S113465018F4883579F0B5C0803719F0883721F01F
S1134660B0C0E92FE061BE2EB4FE0DC0FB2DF46096
S1134670BF2E09C034FE0AC0292F2660B22E06C000
S113468028E030E005C020E130E002C020E132E063
S1134690F801B7FE07C060817181828193810C5F4C
S11346A01F4F06C06081718180E090E00E5F1F4F54
S11346B0A3010E943D24882E8618FB2DFF773F2EF0
S11346C036FE0DC0232D2E7FA22E891458F434FEFD
S11346D00BC032FC09C0832D8E7EA82E05C0B82CD9
S11346E0A32C03C0B82C01C0B92CA4FE0FC0FE013A
S11346F0E80DF11D8081803321F49A2D997EA92E35
S113470009C0A2FE06C0B394B39404C08A2D86786F
S113471009F0B394A3FC11C0A0FE06C0B21488F43F
S1134720280C922C9B180EC0B21460F4B60180E2DF
S113473090E00E940124B394F7CFB21418F42B181C
S113474002C0982C212CA4FE10C0B60180E390E096
S11347500E940124A2FE17C0A1FC03C088E790E0D8
S113476002C088E590E0B6010CC08A2D867859F025
S1134770A1FE02C08BE201C080E2A7FC8DE2B6017B
S113478090E00E940124891438F4B60180E390E09B
S11347900E9401249A94F7CF8A94F301E80DF11D45
S11347A08081B60190E00E9401248110F5CF22207F
S11347B009F442CEB60180E290E00E9401242A94DA
S11347C0F6CFF6018681978102C08FEF9FEF2B967B
S11347D0E2E10C94B724FC01059061507040011093
S11347E0D8F7809590958E0F9F1F0895FC01615016
S11347F0704001900110D8F7809590958E0F9F1FFF
S113480008950F931F93CF93DF93FB01238121FD21
S113481003C08FEF9FEF2CC022FF16C04681578143
S1134820248135814217530744F4A081B1819D014D
S11348302F5F3F4F318320838C93268137812F5FF5
S11348403F4F3783268314C08B01EC01FB010084A6
S1134850F185E02D0995892BE1F6D80116968D9105
S11348609C911797019617969C938E931697CE0159
S1134870DF91CF911F910F910895FA01AA27283053
S113488051F1203181F1E8946F936E7F6E5F7F4F19
S11348908F4F9F4FAF4FB1E03ED0B4E03CD0670F95
S11348A0781F891F9A1FA11D680F791F8A1F911DE8
S11348B0A11D6A0F711D811D911DA11D20D009F438
S11348C068943F912AE0269F11243019305D31937A
S11348D0DEF6CF010895462F4770405D4193B3E063
S11348E00FD0C9F7F6CF462F4F70405D4A3318F00A
S11348F0495D31FD4052419302D0A9F7EACFB4E0BB
S1134900A6959795879577956795BA95C9F7009772
S11349106105710508959B01AC010A2E0694579513
S1134920479537952795BA95C9F7620F731F841F6A
S1134930951FA01D08952F923F924F925F926F9200
S11349407F928F929F92AF92BF92CF92DF92EF921B
S1134950FF920F931F93CF93DF93CDB7DEB7CA1B9C
S1134960DB0B0FB6F894DEBF0FBECDBF09942A88C7
S1134970398848885F846E847D848C849B84AA846F
S1134980B984C884DF80EE80FD800C811B81AA81FC
S1134990B981CE0FD11D0FB6F894DEBF0FBECDBFC7
S10B49A0ED010895F894FFCF26
S11349A8FF00554152542072756E6E696E672E2E43
S11349B82E2E004861726477617265207265736592
S11349C8742E2E2E00496E69745653313031316578
S11349D82E2E2E0070665F6D6F756E743A202564F6
S11349E80046696C65733A202564004261636B3A3A
S11349F820256400506C6179203100506C61792065
S1134A083200466F72776172643A20256400446507
S10D4A186661756C743A2025640091
S9030000FC
