:100000000C9434000C9451000C9451000C94510049
:100010000C9451000C9451000C9451000C9451001C
:100020000C9451000C9451000C9451000C9451000C
:100030000C9451000C9451000C9451000C945100FC
:100040000C9451000C9451000C9451000C945100EC
:100050000C9451000C9451000C9451000C945100DC
:100060000C9451000C94510011241FBECFEFD8E026
:10007000DEBFCDBF11E0A0E0B1E0E6EFF1E502C0E8
:1000800005900D92A430B107D9F711E0A4E0B1E0DA
:1000900001C01D92AD30B107E1F70E94771C0C94AE
:1000A000F9280C940000CF93DF9300D0CDB7DEB7D2
:1000B0009A83898389819A81009711F400C006C0D0
:1000C00089819A810197F1F79A8389830F900F9024
:1000D000DF91CF910895CF93DF93CDB7DEB788E25C
:1000E00090E028E230E0F90120812061FC012083CA
:1000F00000C088E290E028E230E0F90120812F7E04
:10010000FC012083DF91CF910895CF93DF9300D03E
:100110000F92CDB7DEB78A836B838B81882351F032
:1001200088E290E028E230E0F90120812062FC01C1
:10013000208309C088E290E028E230E0F9012081C4
:100140002F7DFC0120838BE290E02BE230E0F9016F
:1001500020812F7EFC01208387E290E027E230E0BF
:10016000F90120812F60FC01208388E290E0FC01EE
:100170008081807F898388E290E02A8122952F7098
:10018000322F2981232BFC0120830E946B0088E2FF
:1001900090E02A81322F3F702981232BFC0120839C
:1001A0000E946B0088E290E029812F60FC0120838F
:1001B0000F900F900F90DF91CF910895CF93DF9321
:1001C00000D0CDB7DEB78A838A81882351F088E2D8
:1001D00090E028E230E0F90120812062FC012083D8
:1001E00009C088E290E028E230E0F90120812F7D0B
:1001F000FC0120838BE290E02BE230E0F9012081CA
:100200002061FC01208387E290E027E230E0F901E1
:100210002081207FFC01208388E290E028E230E00A
:10022000F90120812061FC01208300C086E290E07A
:10023000FC0180818295807F898388E290E028E2BA
:1002400030E0F90120812F7EFC01208300C088E28C
:1002500090E028E230E0F90120812061FC01208358
:1002600000C086E290E0FC018081982F9F70898118
:10027000892B898388E290E028E230E0F90120812F
:100280002F7EFC01208389810F900F90DF91CF9109
:100290000895CF93DF93CDB7DEB780E49FE10E944E
:1002A000530080E0DF91CF9108951F93CF93DF93A8
:1002B0000F92CDB7DEB789838981803410F410E4C2
:1002C00001C010E0812F80580E946B010F90DF91D8
:1002D000CF911F910895CF93DF930F92CDB7DEB7E3
:1002E00089830E944901898160E00E9485000F9006
:1002F000DF91CF910895CF93DF930F92CDB7DEB703
:1003000089830E944901898161E00E9485000F90E4
:10031000DF91CF910895CF93DF9300D0CDB7DEB7B3
:1003200089836A838A81882329F4898180580E947D
:100330006B0104C0898180540E946B010F900F9063
:10034000DF91CF910895CF93DF93CDB7DEB70E94B1
:100350004901882F90E0DF91CF910895CF93DF93EB
:10036000CDB7DEB781E00E946B01DF91CF91089598
:10037000CF93DF93CDB7DEB782E00E946B01DF91B0
:10038000CF910895CF93DF9300D0CDB7DEB78A83A6
:100390000E94490189838A818A3021F489810E94DF
:1003A000550104C08A8161E00E9485000F900F9082
:1003B000DF91CF9108951F93CF93DF9300D0CDB7F6
:1003C000DEB79A83898303C0812F0E94C20189818D
:1003D0009A81FC01108121E0112309F420E0898138
:1003E0009A8101969A838983222371F70F900F9047
:1003F000DF91CF911F9108951F93CF93DF9300D08A
:1004000000D00F92CDB7DEB79D838C8303C0812FC0
:100410000E94C2018C819D819A8389838C819D81F8
:1004200001969D838C8389819A81FC0114911B83A1
:100430008B81182F112359F70F900F900F900F9069
:100440000F90DF91CF911F910895CF93DF930F927B
:10045000CDB7DEB7898387E290E027E230E0F9018B
:1004600020812F60FC01208387E290E027E230E0CA
:10047000F90120812062FC0120838AE290E02AE2D7
:1004800030E0F90120812061FC01208387E290E0C7
:1004900027E230E0F90120812061FC01208380E027
:1004A00098EE0E94530088E290E028E230E0F901E3
:1004B00020812260FC01208388E290E028E230E085
:1004C000F90120812160FC0120830E946B0080E003
:1004D00098E30E9453000E946B0080E094E00E9429
:1004E00053000E946B0080E094E00E94530088E279
:1004F00090E028E230E0F90120812E7FFC0120838A
:100500000E946B0080E094E00E94530088E20E9409
:100510006B0188E00E946B010E94AE0186E00E94A0
:100520006B0189810E946B010F90DF91CF9108953B
:10053000CF93DF93CDB7DEB727970FB6F894DEBF22
:100540000FBECDBF8B834C835D836E837F838B8196
:1005500088237CF48B818F778B8387E740E050E0A2
:10056000BA010E9498028A838A81823010F08A81BF
:1005700057C08BE290E02BE230E0F901208120614E
:10058000FC0120830E943C268BE290E02BE230E0CD
:10059000F90120812F7EFC0120830E943C268B8163
:1005A0000E9426268C819D81AE81BF818B2F992749
:1005B000AA27BB270E9426268C819D81AE81BF8100
:1005C000CD01AA27BB270E9426268C819D81AE8162
:1005D000BF81892F9A2FAB2FBB270E9426268C81A3
:1005E0000E94262681E089838B81803411F485E97D
:1005F00089838B81883411F487E8898389810E94FB
:1006000026268AE089830E943C268A838A81882361
:1006100034F489818150898389818823A1F78A8173
:1006200027960FB6F894DEBF0FBECDBFDF91CF91F6
:1006300008950F931F93CF93DF93CDB7DEB729971C
:100640000FB6F894DEBF0FBECDBF809104018823A2
:1006500089F08BE290E0FC018081882F90E080712E
:100660009070009739F480E090E040E050E0BA01EB
:100670000E94D5040E9402268BE290E02BE230E03B
:10068000F90120812061FC0120838AE0898305C073
:100690000E943C2689818150898389818823C1F702
:1006A0001B8280E440E050E0BA010E949802813051
:1006B00009F0A4C088E44AEA51E060E070E00E94DA
:1006C0009802813009F063C019820FC08981082F18
:1006D00010E00E943C26282FCE010696800F911F25
:1006E000FC01208389818F5F89838981843070F345
:1006F0008885813009F082C089858A3A09F07EC0F8
:1007000080E197E29D838C8307C00E9458268C81EC
:100710009D8101979D838C838C819D81009749F0F9
:1007200089EE40E050E060E070E40E949802882387
:1007300061F78C819D81009709F460C08AE740E0F1
:1007400050E0BA010E949802882309F057C019822C
:100750000FC08981082F10E00E943C26282FCE016F
:100760000696800F911FFC01208389818F5F89830A
:100770008981843070F38E81882F90E0807490702E
:10078000009711F08CE001C084E08B8337C089EEC4
:1007900040E050E0BA010E949802823028F482E0E2
:1007A0008B8389EE8A8304C081E08B8381E48A8312
:1007B00080E197E29D838C8307C00E9458268C813C
:1007C0009D8101979D838C838C819D81009741F051
:1007D0008A8140E050E0BA010E949802882369F7BC
:1007E0008C819D81009749F080E540E052E060E017
:1007F00070E00E949802882309F01B828B8180930D
:1008000004018BE290E02BE230E0F90120812061CD
:10081000FC0120830E943C2681E09B81992309F002
:1008200080E029960FB6F894DEBF0FBECDBFDF91F2
:10083000CF911F910F9108950F931F93CF93DF9343
:10084000CDB7DEB72E970FB6F894DEBF0FBECDBF83
:100850009E838D834F83588769877A873C872B8750
:100860001E870D8780910401882F90E0887090701A
:10087000009789F48F819885A985BA85072E79E03C
:10088000880F991FAA1FBB1F7A95D1F7702D8F83F0
:100890009887A987BA8781E089832F813885498520
:1008A0005A8581E5BA01A9010E949802882309F0BE
:1008B00065C080E49CE99B838A830E943C268C83EC
:1008C0008C818F3F49F48A819B8101979B838A8326
:1008D0008A819B81009789F78C818E3F09F04EC0F9
:1008E0008B859C8522273327281B390B8D859E8578
:1008F000A901481B590BCA018E5F9D4F9B838A83B8
:100900008B859C85009759F00E943C268B859C85A1
:1009100001979C878B878B859C850097A9F78D8194
:100920009E810097B1F00E943C26282F8D819E81E8
:10093000FC0120838D819E8101969E838D838D8510
:100940009E8501979E878D878D859E85009759F797
:1009500009C08D859E8501979E878D878D859E8593
:100960000097B9F70E943C268A819B8101979B835F
:100970008A838A819B810097A9F719828BE290E094
:100980002BE230E0F90120812061FC0120830E94EC
:100990003C2689812E960FB6F894DEBF0FBECDBFE0
:1009A000DF91CF911F910F910895CF93DF93CDB732
:1009B000DEB729970FB6F894DEBF0FBECDBF9D837B
:1009C0008C834E835F836887798781E089838C81FC
:1009D0009D81009759F18E819F819B838A831AC0E4
:1009E0008C819D81FC0120818C819D8101969D835C
:1009F0008C83822F0E94262680910501909106010A
:100A0000019790930601809305018A819B8101974C
:100A10009B838A838A819B81009731F080910501B5
:100A2000909106010097E1F6198280C08E819F8126
:100A3000A885B9850097A105B10599F180910401B8
:100A4000882F90E088709070009789F48E819F8144
:100A5000A885B985072E79E0880F991FAA1FBB1FAB
:100A60007A95D1F7702D8E839F83A887B9872E81C1
:100A70003F814885598588E5BA01A9010E949802FD
:100A8000882309F053C08FEF0E9426268EEF0E9424
:100A9000262680E092E0909306018093050119825A
:100AA00045C0809105019091060102969B838A833F
:100AB00003C080E00E94262621E08A819B81009766
:100AC00009F420E08A819B8101979B838A832223FA
:100AD00081F70E943C26882F90E08F7190708530BE
:100AE0009105C9F488E893E19B838A8307C00E943B
:100AF00058268A819B8101979B838A830E943C268A
:100B00008F3F21F08A819B81009789F78A819B81A1
:100B1000009709F019828BE290E02BE230E0F901B6
:100B200020812061FC0120830E943C268981299636
:100B30000FB6F894DEBF0FBECDBFDF91CF91089501
:100B4000CF93DF93CDB7DEB728970FB6F894DEBF0B
:100B50000FBECDBF9C838B837E836D8358874F836D
:100B60008B819C819A8389830AC02D8189819A8196
:100B7000FC01208389819A8101969A83898321E0EF
:100B80008F819885009709F420E08F8198850197DF
:100B900098878F83222349F728960FB6F894DEBFF3
:100BA0000FBECDBFDF91CF910895CF93DF93CDB727
:100BB000DEB72C970FB6F894DEBF0FBECDBF988777
:100BC0008F837A8769875C874B878F8198859A8323
:100BD000898389859A859C838B831E821D82000070
:100BE00021E08B859C85009709F420E08B859C850E
:100BF00001979C878B87222321F189819A81FC01AF
:100C00008081282F30E08B819C81FC018081882F9E
:100C100090E0A901481B590BCA019E838D8321E0F6
:100C20008D819E81009709F020E089819A8101964B
:100C30009A8389838B819C8101969C838B83222359
:100C400079F68D819E812C960FB6F894DEBF0FBE8B
:100C5000CDBFDF91CF9108950F931F93CF93DF9373
:100C6000CDB7DEB760970FB6F894DEBF0FBECDBF2D
:100C70006D877E878F87988B8091070190910801FF
:100C80009A8389838D859E85AF85B8898230910549
:100C9000A105B10580F089819A81FC012681378107
:100CA000408551858D859E85AF85B88982179307CC
:100CB000A407B50728F081E090E0A0E0B0E021C1F2
:100CC00089819A81FC018081882F90E08230910592
:100CD00009F4AAC08330910509F4D4C0813091058C
:100CE00009F00BC18D859E859C838B838B819C81B4
:100CF000969587952B813C81820F931F9C838B83D4
:100D00008B819C8191709E838D838B819C81892FA7
:100D1000992786959C838B838D819E81F1E08F3FFF
:100D20009F07F9F089819A81FC01228533854485EA
:100D300055858B819C81CC01A0E0B0E0280F391F44
:100D40004A1F5B1FCE010996ED81FE81BA01A90100
:100D50009F0102E010E00E941C04882309F442C0B5
:100D6000CCC089819A81FC012285338544855585D3
:100D70008B819C81CC01A0E0B0E0280F391F4A1F75
:100D80005B1FCE010996BA01A9012FEF31E001E006
:100D900010E00E941C04882309F0A8C089819A8170
:100DA000FC0122853385448555858B819C81CC014E
:100DB000A0E0B0E0820F931FA41FB51F9C01AD01FE
:100DC0002F5F3F4F4F4F5F4FCE0109960196BA01FB
:100DD000A90120E030E001E010E00E941C0488231B
:100DE00009F086C0CE010996FC0180819181988727
:100DF0008F838D859E8581709070882361F08F81AF
:100E00009885929582958F7089279F708927CC014C
:100E1000A0E0B0E008C08F819885CC01A0E0B0E0F0
:100E20009F70A070B0706DC089819A81FC0122858D
:100E30003385448555858D859E85AF85B889892FF5
:100E40009A2FAB2FBB27280F391F4A1F5B1F8D8599
:100E50009E859070FC01EE0FFF1FCE010996BA012E
:100E6000A9019F0102E010E00E941C04882309F000
:100E700041C0CE010996FC0180819181CC01A0E0A6
:100E8000B0E03FC089819A81FC0122853385448589
:100E900055858D859E85AF85B889689416F8B69579
:100EA000A795979587951694D1F7280F391F4A1F54
:100EB0005B1F8D859E858F779070FC01EE0FFF1F65
:100EC000EE0FFF1FCE010996BA01A9019F0104E0B0
:100ED00010E00E941C04882379F4CE010996FC01DD
:100EE00080819181A281B381BF700BC0000005C0D9
:100EF000000003C0000001C0000081E090E0A0E01D
:100F0000B0E0BC01CD0160960FB6F894DEBF0FBE15
:100F1000CDBFDF91CF911F910F910895CF93DF93B4
:100F200000D000D000D0CDB7DEB76B837C838D833B
:100F30009E8380910701909108019A8389838B8118
:100F40009C81AD81BE810297A109B1098B839C83ED
:100F5000AD83BE8389819A81FC0186819781A085BA
:100F6000B1859C01AD0122503040404050408B8102
:100F70009C81AD81BE8182179307A407B50720F03D
:100F800080E090E0DC011DC089819A81FC018281B2
:100F9000882F90E0A0E0B0E02B813C814D815E8104
:100FA000BC01CD010E94B8289B01AC0189819A81C6
:100FB000FC0182899389A489B589820F931FA41F9C
:100FC000B51FBC01CD0126960FB6F894DEBF0FBE4B
:100FD000CDBFDF91CF910895CF93DF93CDB7DEB72B
:100FE00028970FB6F894DEBF0FBECDBF98878F83CA
:100FF00080910701909108019E838D838F81988550
:10100000FC01118210828F819885FC018481958179
:10101000A681B78189839A83AB83BC8389819A81B6
:10102000AB81BC8181309105A105B10581F08D8135
:101030009E81FC01268137814085518589819A8175
:10104000AB81BC8182179307A407B50710F081E03C
:1010500046C089819A81AB81BC810097A105B10509
:1010600089F48D819E81FC018081833059F48D81CA
:101070009E81FC0186859785A089B18989839A83A1
:10108000AB83BC832F81388589819A81AB81BC81F8
:10109000F90180879187A287B38789819A81AB8183
:1010A000BC810097A105B10559F089819A81AB8176
:1010B000BC81BC01CD010E948E07DC01CB0107C0C1
:1010C0008D819E81FC0186859785A089B1892F81BC
:1010D0003885F90184879587A687B78780E02896A9
:1010E0000FB6F894DEBF0FBECDBFDF91CF9108954C
:1010F000CF93DF93CDB7DEB72A970FB6F894DEBF54
:101100000FBECDBF9A878987809107019091080112
:101110009A83898389859A85FC01808191810196D2
:101120009C838B838B819C81009759F089859A855C
:10113000FC0184859585A685B7850097A105B10535
:1011400011F483E097C08B819C818F709070009721
:1011500009F088C089859A85FC0184859585A685D6
:10116000B7850196A11DB11D29853A85F9018487AE
:101170009587A687B78789859A85FC0180859185A3
:10118000A285B3850097A105B10569F489819A818B
:10119000FC01248135818B819C818217930708F49F
:1011A00061C083E067C08B819C819C013295229550
:1011B0002F7023273F70232789819A81FC01828128
:1011C000882F90E0019782239323009709F04AC06B
:1011D00089859A85FC0180859185A285B385BC01AE
:1011E000CD010E942C06DC01CB018D839E83AF8351
:1011F000B8878D819E81AF81B88582309105A10528
:10120000B10510F481E036C089819A81FC01268104
:101210003781408551858D819E81AF81B885821748
:101220009307A407B50710F083E024C029853A8509
:101230008D819E81AF81B885F90180879187A287D2
:10124000B3878D819E81AF81B885BC01CD010E949D
:101250008E07DC01CB0129853A85F90184879587C2
:10126000A687B78789859A852B813C81FC013183CC
:10127000208380E02A960FB6F894DEBF0FBECDBF64
:10128000DF91CF9108950F931F93CF93DF9300D0F9
:1012900000D000D0CDB7DEB79C838B837E836D8377
:1012A0008B819C810E94EC0789838981882311F0BE
:1012B00089815BC08B819C81FC01248535854685B5
:1012C00057858B819C81FC01808191818F7090700A
:1012D000FC01EE0FFF1FE295F295F07FFE27E07F05
:1012E000FE278D819E81BA01A9019F0100E210E0D5
:1012F0000E941C04982F81E0992309F480E08983DF
:101300008981882371F58D819E81FC0180818A838A
:101310008A81882319F483E0898326C08D819E8188
:101320000B96FC018081882F90E088709070009768
:1013300071F48B819C81FC01228133818D819E819E
:10134000B9014BE050E00E94D505009761F08B8118
:101350009C810E94780889838981882309F4AACF17
:1013600003C0000001C00000898126960FB6F894E2
:10137000DEBF0FBECDBFDF91CF911F910F910895BA
:101380000F931F93CF93DF93CDB7DEB727970FB699
:10139000F894DEBF0FBECDBF9D838C837F836E83A9
:1013A00083E0898350C08C819D81FC012485358533
:1013B000468557858C819D81FC01808191818F704C
:1013C0009070FC01EE0FFF1FE295F295F07FFE2773
:1013D000E07FFE278E819F81BA01A9019F0100E273
:1013E00010E00E941C04982F81E0992309F480E00A
:1013F000898389818823A1F58E819F81FC01808169
:101400008A838A81882319F483E089832EC08E81A0
:101410009F810B96FC0180818F738B838A81853E2F
:1014200051F08A818E3239F08B81882F90E088705C
:1014300090700097B9F08C819D810E947808898313
:101440008981882389F48C819D81FC01848595851F
:10145000A685B7850097A105B10509F0A4CF05C001
:10146000000003C0000001C000008981882339F01A
:101470008C819D81FC0114861586168617868981CC
:1014800027960FB6F894DEBF0FBECDBFDF91CF9188
:101490001F910F910895CF93DF93CDB7DEB72C97AF
:1014A0000FB6F894DEBF0FBECDBF9A8789877C87C1
:1014B0006B8789859A85FC01828193819E838D83C8
:1014C0008D819E8160E270E04BE050E00E94A005BB
:1014D0001C828C818B8388E08A838B859C85FC01B0
:1014E0008081918198878F838B81882F90E02F81D5
:1014F0003885820F931FFC01808189838B818F5FE8
:101500008B838981813268F189818F3251F18981A0
:101510008E3221F09C818A81981760F08A81883010
:1015200001F589818E32E9F488E08C838BE08A832F
:101530000000DACF8981813630F089818B3718F449
:101540008981805289838C81882F90E02D813E8112
:10155000820F931F2981FC0120838C818F5F8C83F4
:10156000C3CF8B81882F90E02F813885280F391FBA
:101570008B859C85FC01318320838D819E810B9618
:1015800021E03981313208F020E0FC01208380E045
:101590002C960FB6F894DEBF0FBECDBFDF91CF9172
:1015A0000895CF93DF93CDB7DEB72A970FB6F8949F
:1015B000DEBF0FBECDBF9E838D8378876F835A8732
:1015C000498789859A8509969C838B838D819E8125
:1015D000FC0184859585A685B7850097A105B10591
:1015E00009F483C019821FC08981882F90E02F8160
:1015F0003885820F931FFC0180818A838A81803223
:10160000B1F08A81853011F485EE8A838B819C81CB
:101610002A81FC0120838B819C8101969C838B8392
:1016200089818F5F898389818830F0F201C0000051
:101630008F8198850896FC018081803261F18B81D1
:101640009C812EE2FC0120838B819C8101969C83EE
:101650008B8388E089831AC08981882F90E02F814D
:101660003885820F931FFC0180818A838A818032B2
:1016700089F08B819C812A81FC0120838B819C8154
:1016800001969C838B8389818F5F898389818B30CD
:1016900018F301C000008F819885FC01238589859E
:1016A0009A85FC0120878F819885FC01848D958D1A
:1016B000A68DB78D29853A85F90180839183A28310
:1016C000B3838F819885FC01208D318D89859A8522
:1016D000FC01358324838F819885FC012689378915
:1016E00089859A85FC01378326838B819C81FC0147
:1016F00010822A960FB6F894DEBF0FBECDBFDF91E1
:10170000CF910895CF93DF93CDB7DEB727970FB66C
:10171000F894DEBF0FBECDBF9B838A837D836C832D
:101720005F834E8305C08E819F8101969F838E8348
:101730008E819F81FC0180818032A9F38E819F81FF
:10174000FC0180818F3229F48E819F8101969F83D5
:101750008E838A819B81FC011482158216821782F6
:101760008E819F81FC018081813250F48A819B812E
:101770000E94EC0789838C819D81FC01108268C0E6
:101780008A819B819E012A5F3F4FB9010E944B0ACB
:1017900089838981882309F056C08A819B812C81A5
:1017A0003D81B9010E94430989838981882391F091
:1017B0008981833009F049C08A819B81FC01828143
:1017C00093810B96FC018081882309F03EC084E060
:1017D00089833BC08A819B81FC01828193810B9626
:1017E000FC018081882399F58C819D810B96FC01F9
:1017F0008081882F90E080719070009719F484E0C8
:10180000898326C08C819D814496FC0180819181D1
:10181000CC01A0E0B0E0AC01332722278C819D8170
:101820004A96FC0180819181CC01A0E0B0E0822B3E
:10183000932BA42BB52B2A813B81F90184839583BB
:10184000A683B7839DCF000003C0000001C0000045
:10185000898127960FB6F894DEBF0FBECDBFDF910A
:10186000CF9108950F931F93CF93DF9300D000D0B3
:1018700000D0CDB7DEB79A8389834B835C836D83B9
:101880007E8389819A812B813C814D815E81BA0161
:10189000A9012EEF31E002E010E00E941C04882331
:1018A00011F083E042C089819A81FC01808191819D
:1018B000FAEA85359F0711F082E037C089819A8165
:1018C0002B813C814D815E81BA01A90126E330E084
:1018D00002E010E00E941C04882359F489819A8157
:1018E000FC0180819181F1E486349F0711F480E04E
:1018F0001CC089819A812B813C814D815E81BA0116
:10190000A90122E530E002E010E00E941C048823D7
:1019100059F489819A81FC0180819181F1E48634B6
:101920009F0711F480E001C081E026960FB6F8947D
:10193000DEBF0FBECDBFDF91CF911F910F910895F4
:10194000EF92FF920F931F93CF93DF93CDB7DEB744
:10195000E7970FB6F894DEBF0FBECDBF9FAB8EAB3F
:1019600010920801109207018EA99FA9009711F407
:1019700080E0ABC10E941903882F90E081709070C5
:10198000882311F082E0A1C11A821B821C821D8271
:10199000CE0142962A813B814C815D81BA01A90129
:1019A0000E94320C89838981813061F5CE01429693
:1019B0002A813B814C815D81BA01A9012EEB31E086
:1019C00000E110E00E941C04882319F083E0898361
:1019D00019C08E898823B1F0CE014296FC01808522
:1019E0009185A285B3858A839B83AC83BD83CE0119
:1019F00042962A813B814C815D81BA01A9010E94F6
:101A0000320C89838981833011F481E05EC1898140
:101A1000882311F087E059C1CE0142962A813B818B
:101A20004C815D81BA01A9012DE030E004E210E0B3
:101A30000E941C04882311F081E047C1CE01429628
:101A40000996FC0180819181CC01A0E0B0E08E83F9
:101A50009F83A887B9878E819F81A885B9850097C4
:101A6000A105B10559F4CE014296FC018789908DFC
:101A7000A18DB28D8E839F83A887B9878D89282FEA
:101A800030E040E050E08E819F81A885B985BC019F
:101A9000CD010E94B828DC01CB018E839F83A887EB
:101AA000B987CE0142960196FC01808191819C010B
:101AB00040E050E08A819B81AC81BD81820F931F01
:101AC000A41FB51F2EA93FA9F90182879387A48778
:101AD000B5872A898EA99FA9FC012283CE0142964F
:101AE000FC01248135818EA99FA9FC0135832483C3
:101AF000CE0142960696FC0180819181CC01A0E046
:101B0000B0E08A879B87AC87BD878A859B85AC853B
:101B1000BD850097A105B10559F4CE014296FC019F
:101B200083899489A589B6898A879B87AC87BD8775
:101B3000CE0142960196FC0180819181CC01A0E00A
:101B4000B0E02A853B854C855D85281B390B4A0B07
:101B50005B0B8E819F81A885B985281B390B4A0BA9
:101B60005B0B8EA99FA9FC0184819581929582953A
:101B70008F7089279F708927CC01A0E0B0E07901A0
:101B80008A01E81AF90A0A0B1B0BD801C7012EA912
:101B90003FA9F9012281222F30E040E050E0BC0152
:101BA000CD010E94D728DA01C9010296A11DB11DFD
:101BB0008E879F87A88BB98B2EA93FA98E859F857D
:101BC000A889B989F90186839783A087B18782E0C4
:101BD00089838E859F85A889B989873FFFE09F0704
:101BE000F0E0AF07F0E0BF0710F481E089838E8555
:101BF0009F85A889B989873F0FEF900700E0A0076C
:101C000000E0B00710F083E089838EA99FA92981A5
:101C1000FC0120838981833079F4CE014296FC0156
:101C2000878D90A1A1A1B2A12EA93FA9F901868714
:101C30009787A08BB18B16C08EA99FA9FC01228526
:101C40003385448555858E819F81A885B985820F0E
:101C5000931FA41FB51F2EA93FA9F9018687978757
:101C6000A08BB18B8EA99FA9FC0122853385448569
:101C700055858E819F81A885B985280F391F4A1FF8
:101C80005B1F8EA99FA9FC01848195819295829505
:101C90008F7089279F708927CC01A0E0B0E0820F68
:101CA000931FA41FB51F2EA93FA9F901828B938B07
:101CB000A48BB58B8EA99FA9FC0111828EA99FA927
:101CC000909308018093070180E0E7960FB6F8949F
:101CD000DEBF0FBECDBFDF91CF911F910F91FF905F
:101CE000EF900895CF93DF93CDB7DEB7C154D040C6
:101CF0000FB6F894DEBF0FBECDBF9E01205C3F4FF4
:101D0000F9019183808380910701909108019A8362
:101D1000898389819A81009711F486E064C0898162
:101D20009A81FC011182CE0144969F838E83CE015D
:101D30000496AE01405E5F4F9E01205C3F4FF9016B
:101D400020813181BA01A9010E94820B8B838B8192
:101D5000882311F08B8147C088A1882339F08BA597
:101D6000882F90E080719070009711F083E03BC065
:101D7000CE0180964496FC0180819181CC01A0E047
:101D8000B0E0AC0133272227CE0180964A96FC01B1
:101D900080819181CC01A0E0B0E0822B932BA42B19
:101DA000B52B29813A81F901868F978FA0A3B1A322
:101DB000CE018096FC01848D958DA68DB78D2981ED
:101DC0003A81F901828F938FA48FB58F89819A818F
:101DD000FC01168A178A108E118E89819A8121E062
:101DE000FC01218380E0CF5BDF4F0FB6F894DEBFAC
:101DF0000FBECDBFDF91CF910895EF92FF920F9369
:101E00001F93CF93DF93CDB7DEB76A970FB6F894E1
:101E1000DEBF0FBECDBF9E8B8D8B788F6F8B5A8FA1
:101E2000498F8D899E899C838B8380910701909136
:101E300008019E838D83898D9A8DFC011182108209
:101E40008D819E81009711F486E055C18D819E8120
:101E5000FC018181882F90E081709070009711F4CF
:101E600085E049C18D819E81FC01228D338D448D99
:101E7000558D8D819E81FC0186899789A08DB18DBC
:101E800079018A01E81AF90A0A0B1B0BD801C7016C
:101E90008F839887A987BA878F89988D9C0140E0A6
:101EA00050E08F819885A985BA8582179307A4078A
:101EB000B50708F00FC18F819885988F8F8B0AC165
:101EC0008D819E81FC0186899789A08DB18D91704D
:101ED000A070B0700097A105B10509F082C08D8196
:101EE0009E81FC0186899789A08DB18D072E79E0AE
:101EF000B695A795979587957A95D1F7702D282F48
:101F00008D819E81FC018281815082238B878B850C
:101F10008823C9F58D819E81FC0186899789A08DD2
:101F2000B18D0097A105B10541F48D819E81FC0121
:101F3000868D978DA0A1B1A10DC08D819E81FC01E0
:101F400082A193A1A4A1B5A1BC01CD010E942C0640
:101F5000DC01CB018C879D87AE87BF878C859D85F3
:101F6000AE85BF8582309105A105B10508F4B9C0E1
:101F70002D813E818C859D85AE85BF85F90182A32B
:101F800093A3A4A3B5A38D819E81FC0182A193A1FB
:101F9000A4A1B5A1BC01CD010E948E07DC01CB013B
:101FA000888B998BAA8BBB8B88899989AA89BB89D5
:101FB0000097A105B10509F496C08B85282F30E064
:101FC00040E050E088899989AA89BB89820F931FD4
:101FD000A41FB51F2D813E81F90186A397A3A0A759
:101FE000B1A78D819E81FC0186899789A08DB18DD5
:101FF000917020E032E07901E81AF90AC7019A836A
:10200000898329813A818F89988D8217930720F4DB
:102010008F89988D9A8389838D899E89009719F07D
:102020006B817C8102C060E070E08D819E81FC014B
:1020300026A137A140A551A58D819E81FC018689ED
:102040009789A08DB18DDC01B170E981FA81CB0156
:10205000BA01A9019D018F010E941C048C8B8C89FF
:10206000882309F042C08D819E81FC012689378931
:10207000408D518D89819A81CC01A0E0B0E0820F22
:10208000931FA41FB51F2D813E81F901868B978B6D
:10209000A08FB18F2B813C8189819A81820F931F00
:1020A0009C838B832F89388D89819A817901E81AE5
:1020B000F90AC701988F8F8B898D9A8DFC01208139
:1020C000318189819A81280F391F898D9A8DFC0170
:1020D000318320838F89988D009709F0F1CE80E0BD
:1020E0000AC0000003C0000001C000008D819E8175
:1020F000FC01118281E06A960FB6F894DEBF0FBE34
:10210000CDBFDF91CF911F910F91FF90EF90089578
:10211000EF92FF920F931F93CF93DF93CDB7DEB76C
:1021200069970FB6F894DEBF0FBECDBF9D8B8C8B29
:102130007F8B6E8B598F488F8C899D899A83898379
:1021400080910701909108019E838D83888D998DE0
:10215000FC01118210828D819E81009711F486E02E
:10216000B3C18D819E81FC018181882F90E08170B7
:102170009070009711F485E0A7C18E899F89009720
:1021800001F58D819E81FC018181882F90E0807412
:102190009070009751F080E090E040E050E0BA018C
:1021A0000E94D504882309F07FC18D819E81FC01A6
:1021B0008181282F2F7B8D819E81FC01218380E0EE
:1021C00083C18D819E81FC018181882F90E0807484
:1021D0009070009781F48D819E81FC01868997899A
:1021E000A08DB18D80709E7F2D813E81F901868BFF
:1021F000978BA08FB18F8D819E81FC01228D338DB5
:10220000448D558D8D819E81FC0186899789A08D95
:10221000B18D79018A01E81AF90A0A0B1B0BD80162
:10222000C7018F839887A987BA878E899F899C0168
:1022300040E050E08F819885A985BA858217930781
:10224000A407B50708F029C18F8198859F8B8E8BD5
:1022500024C18D819E81FC0186899789A08DB18DD5
:102260009170009709F09CC08D819E81FC01868948
:102270009789A08DB18D072E79E0B695A795979592
:1022800087957A95D1F7702D282F8D819E81FC013D
:102290008281815082238B878B858823C9F58D812C
:1022A0009E81FC0186899789A08DB18D0097A1053B
:1022B000B10541F48D819E81FC01868D978DA0A191
:1022C000B1A10DC08D819E81FC0182A193A1A4A129
:1022D000B5A1BC01CD010E942C06DC01CB018C878D
:1022E0009D87AE87BF878C859D85AE85BF858230F3
:1022F0009105A105B10508F4D9C02D813E818C85D9
:102300009D85AE85BF85F90182A393A3A4A3B5A340
:102310008D819E81FC0182A193A1A4A1B5A1BC01E4
:10232000CD010E948E07DC01CB01888B998BAA8B93
:10233000BB8B88899989AA89BB890097A105B105BA
:1023400009F4B6C08B85282F30E040E050E0888942
:102350009989AA89BB89820F931FA41FB51F2D815C
:102360003E81F90186A397A3A0A7B1A78D819E8185
:10237000FC0126A137A140A551A580E090E0BA015B
:10238000A9010E94D504882309F094C08D819E8103
:10239000FC018181282F20648D819E81FC01218395
:1023A0008D819E81FC0186899789A08DB18D917068
:1023B00020E032E07901E81AF90AC7019C838B8397
:1023C0002B813C818E899F898217930720F48E8907
:1023D0009F899C838B838B819C819C0140E050E092
:1023E00089819A81BA01A9010E94D504882309F044
:1023F00063C08D819E81FC0126893789408D518D76
:102400008B819C81CC01A0E0B0E0820F931FA41FC0
:10241000B51F2D813E81F901868B978BA08FB18FDF
:1024200029813A818B819C81820F931F9A838983B2
:102430002E893F898B819C817901E81AF90AC701AD
:102440009F8B8E8B888D998DFC01208131818B81B2
:102450009C81280F391F888D998DFC013183208341
:102460008D819E81FC0186899789A08DB18D9170A7
:10247000009799F480E090E040E050E0BA010E94BB
:10248000D5048823D9F48D819E81FC018181282F78
:102490002F7B8D819E81FC0121838E899F890097EE
:1024A00009F0D7CE80E010C0000009C0000007C0CE
:1024B000000005C0000003C0000001C000008D81C5
:1024C0009E81FC01118281E069960FB6F894DEBF0F
:1024D0000FBECDBFDF91CF911F910F91FF90EF9075
:1024E0000895EF92FF920F931F93CF93DF93CDB791
:1024F000DEB766970FB6F894DEBF0FBECDBF6B8B0D
:102500007C8B8D8B9E8B80910701909108019E831F
:102510008D838D819E81009711F486E0B2C18D81FB
:102520009E81FC018181882F90E0817090700097DE
:1025300011F485E0A6C18D819E81FC01228D338D31
:10254000448D558D8B899C89AD89BE8928173907A3
:102550004A075B0758F48D819E81FC01828D938D23
:10256000A48DB58D8B8B9C8BAD8BBE8B8D819E810D
:10257000FC0186899789A08DB18D8F839887A98763
:10258000BA878D819E81FC01168A178A108E118E62
:102590008B899C89AD89BE890097A105B10509F495
:1025A00068C18D819E81FC018281882F90E0A0E02E
:1025B000B0E0072E79E0880F991FAA1FBB1F7A95FC
:1025C000D1F7702D8B879C87AD87BE878F819885CB
:1025D000A985BA850097A105B10509F46BC08B895F
:1025E0009C89AD89BE890197A109B1092B853C85DC
:1025F0004D855E85BC01CD010E94D72879018A01F5
:102600008F819885A985BA850197A109B1092B8584
:102610003C854D855E85BC01CD010E94D728DA013D
:10262000C901E816F9060A071B0708F443C08F81A1
:102630009885A985BA859C01AD0121503040404064
:1026400050408B859C85AD85BE85B095A0959095B5
:1026500081959F4FAF4FBF4F82239323A423B52370
:102660002D813E81F901868B978BA08FB18F8D8153
:102670009E81FC0186899789A08DB18D2B893C892B
:102680004D895E8979018A01E81AF90A0A0B1B0B48
:10269000D801C7018B8B9C8BAD8BBE8B8D819E81AE
:1026A000FC0182A193A1A4A1B5A189839A83AB83E4
:1026B000BC8375C08D819E81FC01868D978DA0A104
:1026C000B1A189839A83AB83BC832D813E818981AB
:1026D0009A81AB81BC81F90182A393A3A4A3B5A382
:1026E0005EC089819A81AB81BC81BC01CD010E9411
:1026F0002C06DC01CB0189839A83AB83BC8389815F
:102700009A81AB81BC8182309105A105B10508F4A5
:10271000B3C08D819E81FC01268137814085518522
:1027200089819A81AB81BC8182179307A407B50781
:1027300008F0A2C02D813E8189819A81AB81BC8144
:10274000F90182A393A3A4A3B5A38D819E81FC016B
:1027500026893789408D518D8B859C85AD85BE85B9
:10276000820F931FA41FB51F2D813E81F901868B17
:10277000978BA08FB18F2B893C894D895E898B8582
:102780009C85AD85BE8579018A01E81AF90A0A0B94
:102790001B0BD801C7018B8B9C8BAD8BBE8B2B8900
:1027A0003C894D895E898B859C85AD85BE85821768
:1027B0009307A407B50708F494CF8D819E81FC018F
:1027C00026893789408D518D8B899C89AD89BE8939
:1027D000820F931FA41FB51F2D813E81F901868BA7
:1027E000978BA08FB18F89819A81AB81BC81BC010D
:1027F000CD010E948E07DC01CB018F87988BA98BBE
:10280000BA8B8F859889A989BA890097A105B105E6
:1028100091F18D819E81FC0186899789A08DB18D72
:102820009C01AD01012E19E05695479537952795E6
:102830001A95D1F7102D8D819E81FC018281882F00
:1028400090E00197AA2797FDA095BA2F2823392356
:102850004A235B238F859889A989BA89820F931FA0
:10286000A41FB51F2D813E81F90186A397A3A0A7C0
:10287000B1A780E006C000008D819E81FC0111821D
:1028800081E066960FB6F894DEBF0FBECDBFDF9134
:10289000CF911F910F91FF90EF900895CF93DF9309
:1028A000CDB7DEB7E3970FB6F894DEBF0FBECDBF4E
:1028B00099AB88AB7BAB6AAB809107019091080123
:1028C0009B838A838A819B81009719F486E08983A0
:1028D00051C088A999A99E012C5F3F4FFC01338309
:1028E000228388A999A9AE01405F5F4F2AA93BA91D
:1028F000BA01A9010E94820B898389818823A9F5E5
:102900008889882351F18B8D882F90E08071907099
:10291000009709F1CE0140964496FC018081918197
:10292000CC01A0E0B0E0AC0133272227CE014096D5
:102930004A96FC0180819181CC01A0E0B0E0822B1D
:10294000932BA42BB52B28A939A9F901848395834E
:10295000A683B78302C084E089838981882329F410
:1029600088A999A90E94EC0789838981833011F491
:1029700084E089838981E3960FB6F894DEBF0FBEA9
:10298000CDBFDF91CF910895CF93DF93CDB7DEB761
:10299000E3970FB6F894DEBF0FBECDBF99AB88ABFF
:1029A0007BAB6AAB80910701909108019B838A837E
:1029B0008A819B81009719F486E0898344C088A9A5
:1029C00099A99E012C5F3F4FFC01338322838AA982
:1029D0009BA9009731F488A999A90E94EC078983E3
:1029E00032C088A999A99E01205F3F4FB9010E947A
:1029F000C00989838981833041F488A999A9FC01A0
:102A00001486158616861786198289818823D9F43B
:102A100088A999A9AE01405F5F4F2AA93BA9BA01D5
:102A2000A9010E94D10A88A999A90E9478088983DE
:102A30008981833041F488A999A9FC0114861586FF
:102A40001686178619828981E3960FB6F894DEBF41
:102A50000FBECDBFDF91CF910895CF93DF93CDB758
:102A6000DEB78AE290E028EFFC012083DF91CF916E
:102A70000895CF93DF930F92CDB7DEB789E290E050
:102A8000FC01808189838981882F90E0817090701A
:102A9000009711F481E013C08981882F90E0827043
:102AA0009070009711F482E00AC08981882F90E02D
:102AB00084709070009711F483E001C080E00F9063
:102AC000DF91CF910895CF93DF930F92CDB7DEB70B
:102AD00089E290E0FC0180818983809100019981E5
:102AE000981711F480E085C089818093000180915E
:102AF0000A01882399F08981882F90E08270907074
:102B0000009761F010920A0180910C01882321F056
:102B100010920C0180E06DC082E06BC080910A01D0
:102B20008823C1F08981882F90E081709070009790
:102B300029F481E080930C0184E05BC08981882FB7
:102B400090E084709070009729F481E080930C01EC
:102B500085E04FC080910901882359F08981882F31
:102B600090E081709070882321F01092090181E03B
:102B700040C080910B01882359F08981882F90E013
:102B800084709070009721F010920B0183E031C0A7
:102B90008981882F90E081709070009749F480912E
:102BA0000901882329F481E08093090180E021C094
:102BB0008981882F90E082709070009749F480910D
:102BC0000A01882329F481E080930A0180E011C082
:102BD0008981882F90E084709070009749F48091EB
:102BE0000B01882329F481E080930B0180E001C070
:102BF00080E00F90DF91CF910895CF93DF93CDB711
:102C0000DEB7AA970FB6F894DEBF0FBECDBF81E046
:102C100091E09B838A831C82CE0105962A813B81A9
:102C2000B9010E944E148C8319828C81882399F4F7
:102C3000CE0105969E012B5E3F4FB9010E94C41440
:102C40008C838C81882339F48E8D882321F08981AF
:102C50008F5F8983EDCF8981AA960FB6F894DEBF86
:102C60000FBECDBFDF91CF910895CF92DF92EF924B
:102C7000FF920F931F93CF93DF93CDB7DEB7CB595E
:102C8000D0400FB6F894DEBF0FBECDBF9E012556D3
:102C90003F4FF9018083EDB6FEB6188681E091E0E2
:102CA0009A878987CE018D589F4F29853A85B9012A
:102CB0000E944E1488878885882309F51982CE01E1
:102CC0008D589F4F9E012D573F4FB9010E94C4144C
:102CD000888788858823A9F4CE018D579F4FFC01F2
:102CE0008185882371F089818F5F8983CE01855624
:102CF0009F4F2981FC018081281708F302C080E0E2
:102D0000A8C50E94D522CE018D579F4F09960E94DB
:102D1000720E88878885882309F484C00E9446251E
:102D200080E090E0AAEFB4E4898B9A8BAB8BBC8BEC
:102D300069897A898B899C8920E030E04AEF54E4E4
:102D40000E945528DC01CB018D8B9E8BAF8BB88FF9
:102D500011E06D897E898F89988D20E030E040E810
:102D60005FE30E94442788230CF010E0112329F030
:102D700081E090E09A8F898F46C011E06D897E894D
:102D80008F89988D20E03FEF4FE757E40E9451284C
:102D900018160CF010E0112361F169897A898B898A
:102DA0009C8920E030E040E251E40E945528DC019B
:102DB000CB01BC01CD010E94B027DC01CB019A8F71
:102DC000898F12C088EC90E09C8F8B8F8B8D9C8DAF
:102DD0008C01C8010197F1F78C011C8F0B8F898D35
:102DE0009A8D01979A8F898F898D9A8D009751F7C7
:102DF00017C06D897E898F89988D0E94B027DC016C
:102E0000CB019A8F898F898D9A8D9E8F8D8F8D8D15
:102E10009E8D8C01F8013197F1F78F011E8F0D8F78
:102E200080E017C580E092E09C878B878DB79EB7C6
:102E30006C018B859C8501979E878D878B859C85F2
:102E40002DB73EB7281B390B0FB6F8943EBF0FBE07
:102E50002DBF8DB79EB701960096988B8F87CE01B8
:102E600087569F4FFC011182108201C000008F85A0
:102E700098894B855C859E0127563F4FBA01A90171
:102E80000E94FD0E88878885882309F0D9C4CE0169
:102E900087569F4FFC0180819181009709F4D2C42D
:102EA0001B821A821D821C82CE0187569F4FFC0115
:102EB000208131818A819B81A901481B590BCA015C
:102EC0008132910528F080E290E09D838C830EC0D2
:102ED000CE0187569F4FFC01208131818A819B81E1
:102EE000A901481B590BCA019D838C831F821E8236
:102EF00013C02E813F818A819B81820F931F2F8572
:102F00003889820F931FFC0180810E9427258E81C2
:102F10009F8101969F838E838E819F818032910550
:102F200044F32A813B818C819D81820F931F9B8377
:102F30008A8383E290E0FC018081882F90E0827098
:102F400090700097B1F30E946315882F90E0833052
:102F5000910509F418C18430910544F4813091053C
:102F600071F08230910509F48CC07EC384309105E4
:102F700009F4CEC18530910509F4A0C275C380E083
:102F800090E0A8ECB2E48F8F98A3A9A3BAA36F8DA9
:102F900078A189A19AA120E030E04AEF54E40E9490
:102FA0005528DC01CB018BA39CA3ADA3BEA311E0EC
:102FB0006BA17CA18DA19EA120E030E040E85FE301
:102FC0000E94442788230CF010E0112329F081E0AF
:102FD00090E098A78FA346C011E06BA17CA18DA1C2
:102FE0009EA120E03FEF4FE757E40E9451281816BA
:102FF0000CF010E0112361F16F8D78A189A19AA1E5
:1030000020E030E040E251E40E945528DC01CB0191
:10301000BC01CD010E94B027DC01CB0198A78FA392
:1030200012C088EC90E09AA789A789A59AA58C017F
:10303000C8010197F1F78C011AA709A78FA198A5DC
:10304000019798A78FA38FA198A5009751F717C054
:103050006BA17CA18DA19EA10E94B027DC01CB01B8
:1030600098A78FA38FA198A59CA78BA78BA59CA59C
:103070008C01F8013197F1F78F011CA70BA781E0B4
:10308000E3C380E090E0A8ECB2E48DA79EA7AFA7D1
:10309000B8AB6DA57EA58FA598A920E030E04AEFDA
:1030A00054E40E945528DC01CB0189AB9AABABAB51
:1030B000BCAB11E069A97AA98BA99CA920E030E0FA
:1030C00040E85FE30E94442788230CF010E01123BE
:1030D00029F081E090E09EAB8DAB46C011E069A97C
:1030E0007AA98BA99CA920E03FEF4FE757E40E9403
:1030F000512818160CF010E0112361F16DA57EA582
:103100008FA598A920E030E040E251E40E945528C4
:10311000DC01CB01BC01CD010E94B027DC01CB0159
:103120009EAB8DAB12C088EC90E098AF8FAB8FA9AF
:1031300098AD8C01C8010197F1F78C0118AF0FAB66
:103140008DA99EA901979EAB8DAB8DA99EA90097D5
:1031500051F717C069A97AA98BA99CA90E94B02729
:10316000DC01CB019EAB8DAB8DA99EA99AAF89AF37
:1031700089AD9AAD8C01F8013197F1F78F011AAF43
:1031800009AF82E061C380E090E0A8ECB2E48BAFCD
:103190009CAFADAFBEAF8E01015C1F4F6BAD7CAD80
:1031A0008DAD9EAD20E030E04AEF54E40E945528FA
:1031B000DC01CB01F80180839183A283B383CE012C
:1031C000CF9611E0FC01608171818281938120E0C2
:1031D00030E040E85FE30E94442788230CF010E0D1
:1031E000112349F0CE018D5B9F4F21E030E0FC01BF
:1031F000318320836EC0CE01CF9611E0FC01608147
:1032000071818281938120E03FEF4FE757E40E9474
:10321000512818160CF010E0112309F449C06BADC9
:103220007CAD8DAD9EAD20E030E040E251E40E94E7
:103230005528DC01CB018E010D5B1F4FBC01CD0178
:103240000E94B027DC01CB01F8019183808327C065
:10325000CE018B5B9F4F28EC30E0FC013183208353
:10326000CE018B5B9F4FFC01808191818C01C80155
:103270000197F1F78C01CE018B5B9F4FFC0111830D
:103280000083CE018D5B9F4F9E012D5B3F4FF90167
:103290002081318121503040FC0131832083CE01D7
:1032A0008D5B9F4FFC0180819181009789F62EC034
:1032B0008E010D5B1F4FCE01CF96FC0160817181A5
:1032C000828193810E94B027DC01CB01F8019183B8
:1032D0008083CE01895B9F4F9E012D5B3F4FF9019B
:1032E00020813181FC0131832083CE01895B9F4F96
:1032F000FC01808191818C01C8010197F1F78C015B
:10330000CE01895B9F4FFC011183008383E09CC247
:103310000E94D3259E01275B3F4F80E090E0A8E408
:10332000B2E4F90180839183A283B3838E01035BAE
:103330001F4FCE01875B9F4FFC01608171818281AD
:10334000938120E030E04AEF54E40E945528DC01EC
:10335000CB01F80180839183A283B383CE01835B89
:103360009F4F11E0FC01608171818281938120E097
:1033700030E040E85FE30E94442788230CF010E02F
:10338000112349F0CE018F5A9F4F21E030E0FC011C
:103390003183208374C0CE01835B9F4F11E0FC0119
:1033A000608171818281938120E03FEF4FE757E494
:1033B0000E94512818160CF010E0112309F44DC09A
:1033C000CE01875B9F4FFC01608171818281938177
:1033D00020E030E040E251E40E945528DC01CB01BE
:1033E0008E010F5A1F4FBC01CD010E94B027DC0196
:1033F000CB01F8019183808327C0CE018D5A9F4F66
:1034000028EC30E0FC0131832083CE018D5A9F4FA0
:10341000FC01808191818C01C8010197F1F78C0139
:10342000CE018D5A9F4FFC0111830083CE018F5A2C
:103430009F4F9E012F5A3F4FF9012081318121502A
:103440003040FC0131832083CE018F5A9F4FFC0115
:1034500080819181009789F630C08E010F5A1F4FED
:10346000CE01835B9F4FFC016081718182819381DA
:103470000E94B027DC01CB01F80191838083CE014B
:103480008B5A9F4F9E012F5A3F4FF9012081318166
:10349000FC0131832083CE018B5A9F4FFC01808138
:1034A00091818C01C8010197F1F78C01CE018B5AF3
:1034B0009F4FFC0111830083D7C0D6C00E94A8256E
:1034C0009E01295A3F4F80E090E0A8E4B2E4F90160
:1034D00080839183A283B3838E01055A1F4FCE014F
:1034E000895A9F4FFC01608171818281938120E024
:1034F00030E04AEF54E40E945528DC01CB01F8018A
:1035000080839183A283B383CE01855A9F4F11E0BC
:10351000FC01608171818281938120E030E040E88C
:103520005FE30E94442788230CF010E0112349F048
:10353000CE01815A9F4F21E030E0FC01318320838E
:1035400074C0CE01855A9F4F11E0FC0160817181EA
:103550008281938120E03FEF4FE757E40E9451289A
:1035600018160CF010E0112309F44DC0CE01895A51
:103570009F4FFC01608171818281938120E030E066
:1035800040E251E40E945528DC01CB018E01015A32
:103590001F4FBC01CD010E94B027DC01CB01F80117
:1035A0009183808327C0CE018F599F4F28EC30E054
:1035B000FC0131832083CE018F599F4FFC01808114
:1035C00091818C01C8010197F1F78C01CE018F59CF
:1035D0009F4FFC0111830083CE01815A9F4F9E01B2
:1035E000215A3F4FF9012081318121503040FC01A7
:1035F00031832083CE01815A9F4FFC0180819181CC
:10360000009789F630C08E01015A1F4FCE01855AAE
:103610009F4FFC0160817181828193810E94B0275C
:10362000DC01CB01F80191838083CE018D599F4F3E
:103630009E01215A3F4FF90120813181FC013183E4
:103640002083CE018D599F4FFC01808191818C0197
:10365000C8010197F1F78C01CE018D599F4FFC01F4
:103660001183008300C00000CE0187569F4FFC01EC
:10367000808191812A813B812817390708F412CC77
:10368000CE0187569F4FFC01208131818B859C851F
:103690002817390708F0EACB9E012B593F4F80E0ED
:1036A00090E0A8ECB2E4F90180839183A283B38314
:1036B0008E0107591F4FCE018B599F4FFC0160812E
:1036C00071818281938120E030E04AEF54E40E94CE
:1036D0005528DC01CB01F80180839183A283B38359
:1036E000CE0187599F4F11E0FC0160817181828179
:1036F000938120E030E040E85FE30E944427882384
:103700000CF010E0112349F0CE0183599F4F21E0C6
:1037100030E0FC013183208374C0CE0187599F4F74
:1037200011E0FC01608171818281938120E03FEF93
:103730004FE757E40E94512818160CF010E01123AF
:1037400009F44DC0CE018B599F4FFC0160817181FE
:103750008281938120E030E040E251E40E945528CC
:10376000DC01CB018E0103591F4FBC01CD010E942A
:10377000B027DC01CB01F8019183808327C0CE0103
:1037800081599F4F28EC30E0FC0131832083CE012A
:1037900081599F4FFC01808191818C01C801019763
:1037A000F1F78C01CE0181599F4FFC0111830083F9
:1037B000CE0183599F4F9E0123593F4FF90120812C
:1037C000318121503040FC0131832083CE01835967
:1037D0009F4FFC0180819181009789F62FC08E0157
:1037E00003591F4FCE0187599F4FFC0160817181A2
:1037F000828193810E94B027DC01CB01F801918383
:103800008083CE018F589F4F9E0123593F4FF9016E
:1038100020813181FC0131832083CE018F589F4F5D
:10382000FC01808191818C01C8010197F1F78C0125
:10383000CE018F589F4FFC011183008380E004C0AC
:10384000000001C0000080E00FB6F894DEBE0FBE9D
:10385000CDBE0FB6F894FEBE0FBEEDBEC556DF4F0F
:103860000FB6F894DEBF0FBECDBFDF91CF911F9191
:103870000F91FF90EF90DF90CF900895CF93DF935B
:1038800000D000D00F92CDB7DEB785E089838AE003
:103890008A8399818A81292F281B822F8B838AE230
:1038A00090E028EFFC0120838BE290E02FEFFC01F9
:1038B000208387E290E02FEFFC01208388E290E0F4
:1038C0002FEFFC0120830E942D158BE290E02BE26C
:1038D00030E0F90120812760FC0120831C820E94D6
:1038E00063158C831D828D818F5F8D83F8CF0F933D
:1038F0001F93CF93DF93CDB7DEB7C159D0400FB63A
:10390000F894DEBF0FBECDBF0E94D3250E94D32501
:103910000E94A8250E94A8250E943E1C80E090E0FD
:10392000A0E2B1E48E839F83A887B9876E817F81EF
:103930008885998520E030E04AEF54E40E945528BC
:10394000DC01CB018A879B87AC87BD8711E06A8544
:103950007B858C859D8520E030E040E85FE30E9418
:10396000442788230CF010E0112329F081E090E037
:103970009F878E8746C011E06A857B858C859D85F3
:1039800020E03FEF4FE757E40E94512818160CF053
:1039900010E0112361F16E817F818885998520E097
:1039A00030E040E251E40E945528DC01CB01BC012B
:1039B000CD010E94B027DC01CB019F878E8712C00A
:1039C00088EC90E0998B888B888999898C01C80153
:1039D0000197F1F78C01198B088B8E859F850197D4
:1039E0009F878E878E859F85009751F717C06A85C0
:1039F0007B858C859D850E94B027DC01CB019F874C
:103A00008E878E859F859B8B8A8B8A899B898C016B
:103A1000F8013197F1F78F011B8B0A8B8AE290E056
:103A200028EFFC0120838BE290E02FEFFC01208344
:103A300087E290E02FEFFC01208388E290E02FEFF7
:103A4000FC01208380E090E0A8E4B2E48C8B9D8BA5
:103A5000AE8BBF8B6C897D898E899F8920E030E099
:103A60004AEF54E40E945528DC01CB01888F998FDE
:103A7000AA8FBB8F11E0688D798D8A8D9B8D20E098
:103A800030E040E85FE30E94442788230CF010E018
:103A9000112329F081E090E09D8F8C8F46C011E0CA
:103AA000688D798D8A8D9B8D20E03FEF4FE757E43D
:103AB0000E94512818160CF010E0112361F16C8956
:103AC0007D898E899F8920E030E040E251E40E94A8
:103AD0005528DC01CB01BC01CD010E94B027DC01DF
:103AE000CB019D8F8C8F12C088EC90E09F8F8E8FC2
:103AF0008E8D9F8D8C01C8010197F1F78C011F8F6E
:103B00000E8F8C8D9D8D01979D8F8C8F8C8D9D8DB3
:103B1000009751F717C0688D798D8A8D9B8D0E9413
:103B2000B027DC01CB019D8F8C8F8C8D9D8D99A34F
:103B300088A388A199A18C01F8013197F1F78F0131
:103B400019A308A389E290E0FC018081882F90E00E
:103B5000817090700097B1F30E942D158BE290E078
:103B60002BE230E0F90120812760FC0120831A82DA
:103B70008FEF8B830E9419038A8380E090E0A0E29C
:103B8000B1E48AA39BA3ACA3BDA36AA17BA18CA132
:103B90009DA120E030E04AEF54E40E945528DC016A
:103BA000CB018EA39FA3A8A7B9A711E06EA17FA107
:103BB00088A599A520E030E040E85FE30E94442713
:103BC00088230CF010E0112329F081E090E09BA7FE
:103BD0008AA746C011E06EA17FA188A599A520E023
:103BE0003FEF4FE757E40E94512818160CF010E001
:103BF000112361F16AA17BA18CA19DA120E030E09D
:103C000040E251E40E945528DC01CB01BC01CD010A
:103C10000E94B027DC01CB019BA78AA712C088ECC9
:103C200090E09DA78CA78CA59DA58C01C80101974C
:103C3000F1F78C011DA70CA78AA59BA501979BA74F
:103C40008AA78AA59BA5009751F717C06EA17FA1EF
:103C500088A599A50E94B027DC01CB019BA78AA764
:103C60008AA59BA59FA78EA78EA59FA58C01F8016D
:103C70003197F1F78F011FA70EA70E9476230E94AC
:103C8000872180E090E0A0EAB0E488AB99ABAAABD2
:103C9000BBAB68A979A98AA99BA920E030E04AEFCB
:103CA00054E40E945528DC01CB018CAB9DABAEAB3C
:103CB000BFAB11E06CA97DA98EA99FA920E030E0DF
:103CC00040E85FE30E94442788230CF010E01123B2
:103CD00029F081E090E099AF88AF46C011E06CA96F
:103CE0007DA98EA99FA920E03FEF4FE757E40E94EE
:103CF000512818160CF010E0112361F168A979A978
:103D00008AA99BA920E030E040E251E40E945528B6
:103D1000DC01CB01BC01CD010E94B027DC01CB014D
:103D200099AF88AF12C088EC90E09BAF8AAF8AADA4
:103D30009BAD8C01C8010197F1F78C011BAF0AAF55
:103D400088AD99AD019799AF88AF88AD99AD0097CF
:103D500051F717C06CA97DA98EA99FA90E94B02711
:103D6000DC01CB0199AF88AF88AD99AD9DAF8CAF29
:103D70008CAD9DAD8C01F8013197F1F78F011DAF2E
:103D80000CAF9E01225C3F4F80E090E0AAEFB3E4CD
:103D9000F90180839183A283B3838E010E5B1F4F51
:103DA000CE01CE96FC01608171818281938120E0F9
:103DB00030E04AEF54E40E945528DC01CB01F801C1
:103DC00080839183A283B383CE018E5B9F4F11E0EA
:103DD000FC01608171818281938120E030E040E8C4
:103DE0005FE30E94442788230CF010E0112349F080
:103DF000CE018A5B9F4F21E030E0FC0131832083BC
:103E000073C0CE018E5B9F4F11E0FC016081718118
:103E10008281938120E03FEF4FE757E40E945128D1
:103E200018160CF010E0112309F44CC0CE01CE9608
:103E3000FC01608171818281938120E030E040E269
:103E400051E40E945528DC01CB018E010A5B1F4F13
:103E5000BC01CD010E94B027DC01CB01F8019183A8
:103E6000808327C0CE01885B9F4F28EC30E0FC01A7
:103E700031832083CE01885B9F4FFC01808191813B
:103E80008C01C8010197F1F78C01CE01885B9F4F2F
:103E9000FC0111830083CE018A5B9F4F9E012A5B48
:103EA0003F4FF9012081318121503040FC013183A5
:103EB0002083CE018A5B9F4FFC0180819181009716
:103EC00089F62FC08E010A5B1F4FCE018E5B9F4F7C
:103ED000FC0160817181828193810E94B027DC01A5
:103EE000CB01F80191838083CE01865B9F4F9E01B9
:103EF0002A5B3F4FF90120813181FC01318320830E
:103F0000CE01865B9F4FFC01808191818C01C801AD
:103F10000197F1F78C01CE01865B9F4FFC01118365
:103F20000083CE0188599F4F0E94A00C8B838B8108
:103F3000882309F0E7C10E94FD158C8381E0898305
:103F400089810E9435168D838D81882F90E0823083
:103F5000910591F08330910509F4BAC18130910542
:103F600009F0C0C18981815089838981882309F042
:103F7000C3C18C818983C0C19E01245B3F4F80E017
:103F800090E0AAEFB3E4F90180839183A283B38325
:103F90008E01005B1F4FCE01845B9F4FFC0160814F
:103FA00071818281938120E030E04AEF54E40E94E5
:103FB0005528DC01CB01F80180839183A283B38370
:103FC000CE01805B9F4F11E0FC0160817181828195
:103FD000938120E030E040E85FE30E94442788239B
:103FE0000CF010E0112349F0CE018C5A9F4F21E0D4
:103FF00030E0FC013183208374C0CE01805B9F4F91
:1040000011E0FC01608171818281938120E03FEFAA
:104010004FE757E40E94512818160CF010E01123C6
:1040200009F44DC0CE01845B9F4FFC01608171811A
:104030008281938120E030E040E251E40E945528E3
:10404000DC01CB018E010C5A1F4FBC01CD010E9437
:10405000B027DC01CB01F8019183808327C0CE011A
:104060008A5A9F4F28EC30E0FC0131832083CE0137
:104070008A5A9F4FFC01808191818C01C801019770
:10408000F1F78C01CE018A5A9F4FFC011183008306
:10409000CE018C5A9F4F9E012C5A3F4FF90120812F
:1040A000318121503040FC0131832083CE018C5A74
:1040B0009F4FFC0180819181009789F630C08E016D
:1040C0000C5A1F4FCE01805B9F4FFC0160817181B4
:1040D000828193810E94B027DC01CB01F80191839A
:1040E0008083CE01885A9F4F9E012C5A3F4FF90181
:1040F00020813181FC0131832083CE01885A9F4F7A
:10410000FC01808191818C01C8010197F1F78C013C
:10411000CE01885A9F4FFC011183008300C000002C
:104120000E9463158230E1F79E01265A3F4F80E0DE
:1041300090E0A8ECB2E4F90180839183A283B38379
:104140008E01025A1F4FCE01865A9F4FFC0160819B
:1041500071818281938120E030E04AEF54E40E9433
:104160005528DC01CB01F80180839183A283B383BE
:10417000CE01825A9F4F11E0FC01608171818281E2
:10418000938120E030E040E85FE30E9444278823E9
:104190000CF010E0112349F0CE018E599F4F21E021
:1041A00030E0FC013183208374C0CE01825A9F4FDE
:1041B00011E0FC01608171818281938120E03FEFF9
:1041C0004FE757E40E94512818160CF010E0112315
:1041D00009F44DC0CE01865A9F4FFC016081718168
:1041E0008281938120E030E040E251E40E94552832
:1041F000DC01CB018E010E591F4FBC01CD010E9485
:10420000B027DC01CB01F8019183808327C0CE0168
:104210008C599F4F28EC30E0FC0131832083CE0184
:104220008C599F4FFC01808191818C01C8010197BD
:10423000F1F78C01CE018C599F4FFC011183008353
:10424000CE018E599F4F9E012E593F4FF90120817B
:10425000318121503040FC0131832083CE018E59C1
:104260009F4FFC0180819181009789F630C08E01BB
:104270000E591F4FCE01825A9F4FFC016081718100
:10428000828193810E94B027DC01CB01F8019183E8
:104290008083CE018A599F4F9E012E593F4FF901CD
:1042A00020813181FC0131832083CE018A599F4FC7
:1042B000FC01808191818C01C8010197F1F78C018B
:1042C000CE018A599F4FFC01118300831AC019C087
:1042D00089818F5F898399818C81891778F481E046
:1042E00089830CC089818F5F898399818C8189172B
:1042F00038F481E0898304C0000003C0000001C0DD
:1043000000001ECE80E090E00E94A00CFFCF0F9333
:104310001F93CF93DF93CDB7DEB76C970FB6F894AA
:10432000DEBF0FBECDBF83E290E0FC018081882F0D
:1043300090E0827090700097B1F321EB34E280E05E
:1043400090E060E278E0F901099580E090E0A0E873
:10435000BFE389839A83AB83BC8369817A818B8134
:104360009C8120E030E04AE753E40E945528DC01BC
:10437000CB018D839E83AF83B88711E06D817E81F1
:104380008F81988520E030E040E85FE30E94442779
:1043900088230CF010E0112329F081E090E09A8747
:1043A000898746C011E06D817E818F81988520E0EC
:1043B0003FEF4FE757E40E94512818160CF010E029
:1043C000112361F169817A818B819C8120E030E049
:1043D00040E251E40E945528DC01CB01BC01CD0133
:1043E0000E94B027DC01CB019A87898712C089E13E
:1043F00090E09C878B878B859C858C01C8010197F9
:10440000F1F78C011C870B8789859A8501979A871C
:10441000898789859A85009751F717C06D817E81BC
:104420008F8198850E94B027DC01CB019A8789870C
:1044300089859A859E878D878D859E858C01F8015B
:104440003197F1F78F011E870D8721EB34E283E06E
:1044500090E060E078E9F901099580E090E0A0E85B
:10446000BFE38F87988BA98BBA8B6F8578898989F1
:104470009A8920E030E04AE753E40E945528DC01A5
:10448000CB018B8B9C8BAD8BBE8B11E06B897C89B8
:104490008D899E8920E030E040E85FE30E94442758
:1044A00088230CF010E0112329F081E090E0988F30
:1044B0008F8B46C011E06B897C898D899E8920E0B5
:1044C0003FEF4FE757E40E94512818160CF010E018
:1044D000112361F16F85788989899A8920E030E01C
:1044E00040E251E40E945528DC01CB01BC01CD0122
:1044F0000E94B027DC01CB01988F8F8B12C089E11D
:1045000090E09A8F898F898D9A8D8C01C8010197CF
:10451000F1F78C011A8F098F8F89988D0197988FE9
:104520008F8B8F89988D009751F717C06B897C8985
:104530008D899E890E94B027DC01CB01988F8F8BDB
:104540008F89988D9C8F8B8F8B8D9C8D8C01F80122
:104550003197F1F78F011C8F0B8F6C960FB6F89483
:10456000DEBF0FBECDBFDF91CF911F910F91089598
:10457000CF93DF9300D0CDB7DEB79A83898303C092
:1045800080E00E94272521E089819A81009709F423
:1045900020E089819A8101979A838983222381F778
:1045A0000F900F90DF91CF9108950F931F93CF93AA
:1045B000DF93CDB7DEB72E970FB6F894DEBF0FBEF0
:1045C000CDBF21EB34E280E090E064E070E0F901DF
:1045D000099580E090E0A8E4B2E489839A83AB83F4
:1045E000BC8369817A818B819C8120E030E04AE73D
:1045F00053E40E945528DC01CB018D839E83AF8359
:10460000B88711E06D817E818F81988520E030E050
:1046100040E85FE30E94442788230CF010E0112358
:1046200029F081E090E09A87898746C011E06D818A
:104630007E818F81988520E03FEF4FE757E40E940D
:10464000512818160CF010E0112361F169817A816C
:104650008B819C8120E030E040E251E40E945528AB
:10466000DC01CB01BC01CD010E94B027DC01CB01F4
:104670009A87898712C089E190E09C878B878B8518
:104680009C858C01C8010197F1F78C011C870B8771
:1046900089859A8501979A87898789859A85009760
:1046A00051F717C06D817E818F8198850E94B02758
:1046B000DC01CB019A87898789859A859E878D87BA
:1046C0008D859E858C01C8010197F1F78C011E87AD
:1046D0000D870E9487212E960FB6F894DEBF0FBE7D
:1046E000CDBFDF91CF911F910F9108950F931F932D
:1046F000CF93DF93CDB7DEB76C970FB6F894DEBFDC
:104700000FBECDBF88E290E028E230E0F9012081C1
:10471000277FFC01208380E090E0A8ECB2E489834D
:104720009A83AB83BC8369817A818B819C8120E0F1
:1047300030E04AE753E40E945528DC01CB018D8329
:104740009E83AF83B88711E06D817E818F819885CC
:1047500020E030E040E85FE30E94442788230CF02B
:1047600010E0112329F081E090E09A87898746C004
:1047700011E06D817E818F81988520E03FEF4FE7CA
:1047800057E40E94512818160CF010E0112361F133
:1047900069817A818B819C8120E030E040E251E4A4
:1047A0000E945528DC01CB01BC01CD010E94B0273D
:1047B000DC01CB019A87898712C089E190E09C8750
:1047C0008B878B859C858C01C8010197F1F78C0143
:1047D0001C870B8789859A8501979A8789878985A0
:1047E0009A85009751F717C06D817E818F819885DA
:1047F0000E94B027DC01CB019A87898789859A8539
:104800009E878D878D859E858C01F8013197F1F704
:104810008F011E870D8785E290E025E230E0F901E7
:1048200020812460FC01208385E290E025E230E0D5
:10483000F90120812160FC01208388E290E028E2D8
:1048400030E0F90120812860FC01208380E090E0C5
:10485000A8ECB2E48F87988BA98BBA8B6F85788987
:1048600089899A8920E030E04AE753E40E9455287C
:10487000DC01CB018B8B9C8BAD8BBE8B11E06B89EC
:104880007C898D899E8920E030E040E85FE30E94CA
:10489000442788230CF010E0112329F081E090E0F8
:1048A000988F8F8B46C011E06B897C898D899E899A
:1048B00020E03FEF4FE757E40E94512818160CF014
:1048C00010E0112361F16F85788989899A8920E048
:1048D00030E040E251E40E945528DC01CB01BC01EC
:1048E000CD010E94B027DC01CB01988F8F8B12C0C5
:1048F00089E190E09A8F898F898D9A8D8C01C8010A
:104900000197F1F78C011A8F098F8F89988D019784
:10491000988F8F8B8F89988D009751F717C06B896F
:104920007C898D899E890E94B027DC01CB01988FFC
:104930008F8B8F89988D9C8F8B8F8B8D9C8D8C010D
:10494000F8013197F1F78F011C8F0B8F6C960FB622
:10495000F894DEBF0FBECDBFDF91CF911F910F91B5
:104960000895CF93DF9300D000D0CDB7DEB78A8310
:104970007C836B8385E290E025E230E0F9012081C1
:104980002B7FFC01208382E00E9426268A810E94E0
:1049900026268B819C81892F9927898389810E9472
:1049A00026268B81898389810E94262685E290E0D4
:1049B00025E230E0F90120812460FC0120830F9082
:1049C0000F900F900F90DF91CF910895CF93DF93C9
:1049D00000D000D0CDB7DEB78C8385E290E025E231
:1049E00030E0F90120812B7FFC01208383E00E94CD
:1049F00026268C810E9426261A8219821B820E94FA
:104A00003C268B838B81882F90E0982F88279A8370
:104A100089830E943C268B838B81882F90E029819B
:104A20003A81822B932B9A83898385E290E025E259
:104A300030E0F90120812460FC01208389819A8182
:104A40000F900F900F900F90DF91CF910895CF931B
:104A5000DF930F92CDB7DEB7898385E290E025E240
:104A600030E0F90120812E7FFC01208389810E94A2
:104A7000262685E290E025E230E0F90120812160E0
:104A8000FC0120830F90DF91CF910895CF93DF93A6
:104A9000CDB7DEB783E50E9427258FEE0E9427253C
:104AA0008EE60E94272584E40E94272580E00E944C
:104AB000272580E00E94272580E00E94272580E0AE
:104AC0000E942725DF91CF910895CF93DF93CDB733
:104AD000DEB785E40E94272588E70E94272589E61E
:104AE0000E94272584E70E94272580E00E94272531
:104AF00080E00E94272580E00E94272580E00E9418
:104B00002725DF91CF910895CF93DF9300D0CDB7C4
:104B1000DEB789836A838BE290E02BE230E0F90113
:104B20002081277FFC01208389810E9426268A819B
:104B30000E9426268BE290E02BE230E0F9012081F2
:104B40002860FC0120830F900F90DF91CF91089592
:104B5000CF93DF9300D00F92CDB7DEB790910201D3
:104B600080910301292F281B822F898380910201C4
:104B70009981891708F419828981809302011B8227
:104B80001A828981882F90E0382F22278981882FE7
:104B900090E0822B932B9B838A830F900F900F9032
:104BA000DF91CF910895CF93DF9300D00F92CDB7CF
:104BB000DEB79091020180910301890F8983809172
:104BC00002019981981710F48EEF898389818F3FB4
:104BD00011F48EEF89838981809302011B821A82EE
:104BE0008981882F90E0382F22278981882F90E0B3
:104BF000822B932B9B838A830F900F900F90DF91D2
:104C0000CF910895CF93DF93CDB7DEB784E290E0E4
:104C10002DE2FC0120838AE290E02AE230E0F901F3
:104C200020812061FC01208385E290E02FEEFC01D1
:104C300020838CE490E021E5FC0120838DE490E06A
:104C400021E0FC012083DF91CF910895CF93DF9382
:104C50000F92CDB7DEB789838EE490E02981FC0105
:104C6000208300008DE490E0FC0180818823D4F74C
:104C70000F90DF91CF910895CF93DF930F92CDB72F
:104C8000DEB719828EE490E02FEFFC012083000054
:104C90008DE490E0FC0180818823D4F78EE490E0DD
:104CA000FC018081898389810F90DF91CF910895E4
:104CB0000F931F93CF93DF93CDB7DEB768970FB6EF
:104CC000F894DEBF0FBECDBF80E090E0A0E8BFE368
:104CD00089839A83AB83BC8369817A818B819C8130
:104CE0002BEA3AEA4AEA5EE30E945528DC01CB014E
:104CF0008D839E83AF83B88711E06D817E818F8124
:104D0000988520E030E040E85FE30E944427882354
:104D10000CF010E0112319F081E08987A3C011E0A5
:104D20006D817E818F81988520E030E04FE753E4EC
:104D30000E94512818160CF010E0112309F489C0C4
:104D400069817A818B819C8120E030E04AE754E4DC
:104D50000E944827DC01CB018A879B87AC87BD87EF
:104D60006A857B858C859D8520E030E04AE753E4A9
:104D70000E945528DC01CB018E879F87A88BB98BB9
:104D800011E06E857F858889998920E030E040E8D0
:104D90005FE30E94442788230CF010E0112329F0E0
:104DA00081E090E09B8B8A8B46C011E06E857F8509
:104DB0008889998920E03FEF4FE757E40E94512806
:104DC00018160CF010E0112361F16A857B858C8543
:104DD0009D8520E030E040E251E40E945528DC014E
:104DE000CB01BC01CD010E94B027DC01CB019B8B24
:104DF0008A8B12C089E190E09D8B8C8B8C899D8978
:104E00008C01C8010197F1F78C011D8B0C8B8A89ED
:104E10009B8901979B8B8A8B8A899B89009751F785
:104E200028C06E857F85888999890E94B027DC011A
:104E3000CB019B8B8A8B8A899B899F8B8E8B8E89DA
:104E40009F898C01C8010197F1F78C011F8B0E8B94
:104E500010C06D817E818F8198850E94B027DC0112
:104E6000CB0189878985888F888D182F1A95F1F74E
:104E7000188F68960FB6F894DEBF0FBECDBFDF91D6
:104E8000CF911F910F91089597D008F481E0089574
:104E90000CD0CDC0C5D040F0BCD030F021F45F3F85
:104EA00019F0AEC05111F7C0B1C0D2D098F3992318
:104EB000C9F35523B1F3951B550BBB27AA276217DE
:104EC0007307840738F09F5F5F4F220F331F441F23
:104ED000AA1FA9F333D00E2E3AF0E0E830D091505B
:104EE0005040E695001CCAF729D0FE2F27D0660F48
:104EF000771F881FBB1F261737074807AB07B0E887
:104F000009F0BB0B802DBF01FF2793585F4F2AF09C
:104F10009E3F510568F074C0BEC05F3FECF3983E01
:104F2000DCF3869577956795B795F7959F5FC9F7F9
:104F3000880F911D9695879597F90895E1E0660F82
:104F4000771F881FBB1F621773078407BA0720F0FB
:104F5000621B730B840BBA0BEE1F88F7E095089564
:104F60007FD088F09F5790F0B92F9927B751A0F0C4
:104F7000D1F0660F771F881F991F1AF0BA95C9F7ED
:104F800012C0B13081F086D0B1E0089583C0672FA0
:104F9000782F8827B85F39F0B93FCCF3869577959D
:104FA0006795B395D9F73EF4909580957095619586
:104FB0007F4F8F4F9F4F0895990F0008550FAA0BF1
:104FC000E0E8FEEF16161706E807F907C0F012161C
:104FD0001306E407F50798F0621B730B840B950B1F
:104FE00039F40A2661F0232B242B252B21F4089574
:104FF0000A2609F4A140A6958FEF811D811D089511
:1050000097F99F6780E870E060E008959FEF80EC7B
:10501000089500240A94161617061806090608951E
:1050200000240A9412161306140605060895092E84
:105030000394000C11F4882352F0BB0F40F4BF2BF3
:1050400011F460FF04C06F5F7F4F8F4F9F4F089533
:1050500057FD9058440F551F59F05F3F71F0479529
:10506000880F97FB991F61F09F3F79F0879508950E
:10507000121613061406551FF2CF4695F1DF08C02D
:10508000161617061806991FF1CF8695710561054A
:1050900008940895E894BB2766277727CB0197F9F2
:1050A00008958ADF08F48FEF08950BD0C0CFB1DFE9
:1050B00028F0B6DF18F0952309F0A2CFA7CF11246E
:1050C000EACFC6DFA0F3959FD1F3950F50E0551FAF
:1050D000629FF001729FBB27F00DB11D639FAA274D
:1050E000F00DB11DAA1F649F6627B00DA11D661F9C
:1050F000829F2227B00DA11D621F739FB00DA11DBD
:10510000621F839FA00D611D221F749F3327A00D76
:10511000611D231F849F600D211D822F762F6A2F12
:1051200011249F5750408AF0E1F088234AF0EE0F97
:10513000FF1FBB1F661F771F881F91505040A9F7A4
:105140009E3F510570F05CCFA6CF5F3FECF3983ED9
:10515000DCF3869577956795B795F795E7959F5F0B
:10516000C1F7FE2B880F911D9695879597F90895A5
:10517000629FD001739FF001829FE00DF11D649F3B
:10518000E00DF11D929FF00D839FF00D749FF00DC7
:10519000659FF00D9927729FB00DE11DF91F639F68
:1051A000B00DE11DF91FBD01CF0111240895A1E249
:1051B0001A2EAA1BBB1BFD010DC0AA1FBB1FEE1F91
:1051C000FF1FA217B307E407F50720F0A21BB30BDC
:1051D000E40BF50B661F771F881F991F1A9469F758
:1051E00060957095809590959B01AC01BD01CF01B4
:0651F0000895F894FFCFC2
:0451F600FF00F10ABB
:00000001FF
