S0130000446973706C6179546573742E737265639B
S11300000C9484010C94A1010C94A1010C94A10101
S11300100C94A1010C94A1010C94A1010C94A101D4
S11300200C94A1010C94A1010C94A1010C94A101C4
S11300300C94A1010C94A1010C94A1010C94A101B4
S11300400C94A1010C94A1010C94A1010C94A101A4
S11300500C94A1010C94A1010C94A1010C94A10194
S11300600C94A1010C94A101000000000000000008
S1130070002F000000000700070000147F147F1405
S113008000242A7F2A12006264081323003649558B
S1130090225000000503000000001C224100000063
S11300A041221C000014083E08140008083E0808F9
S11300B0000000A060000008080808080000606054
S11300C00000002010080402003E5149453E000093
S11300D0427F4000004261514946002141454B3175
S11300E0001814127F10002745454539003C4A4941
S11300F049300001710905030036494949360006B3
S11301004949291E0000363600000000563600001A
S11301100008142241000014141414140000412295
S1130120140800020151090600324959513E007C6D
S11301301211127C007F49494936003E4141412257
S1130140007F4141221C007F49494941007F090940
S11301500901003E4149497A007F0808087F0000F0
S1130160417F4100002040413F01007F08142241AB
S1130170007F40404040007F020C027F007F040863
S1130180107F003E4141413E007F09090906003EBF
S11301904151215E007F09192946004649494931E8
S11301A00001017F0101003F4040403F001F20400B
S11301B0201F003F4038403F0063140814630007C9
S11301C00870080700615149454300007F41410020
S11301D000552A552A55000041417F0000040201C0
S11301E0020400404040404000000102040000209E
S11301F054545478007F48444438003844444420DC
S113020000384444487F00385454541800087E0988
S113021001020018A4A4A47C007F08040478000050
S1130220447D4000004080847D00007F102844000D
S11302300000417F4000007C04180478007C08041E
S1130240047800384444443800FC2424241800185A
S1130250242418FC007C0804040800485454542046
S113026000043F444020003C4040207C001C2040CF
S1130270201C003C4030403C004428102844001C12
S1130280A0A0A07C004464544C44000008774100C2
S11302900000006300000000417708000008040823
S11302A00804003A4040207A003D4040403D00218F
S11302B054545479007D1211127D00394444443958
S11302C0003D4242423D000205020000007E014919
S11302D05573007C1010081CBC5F9C60A461846290
S11302E0B6639664B0659F66B567FFFFAE2000B045
S11302F0C8001040813FA1A6A83FA4D300D5F0D9DF
S113030022DA12DB208D140011241FBECFEFD8E0B7
S1130310DEBFCDBF11E0A0E0B1E0E2E6FDE002C047
S113032005900D92A232B107D9F721E0A2E2B1E023
S113033001C01D92A532B207E1F70E9485060C9414
S1130340AF060C940000CF93DF93CDB7DEB789EBF3
S113035090E0FC011082000088EB90E028E4FC01AE
S113036020838CEB90E024E0FC0120830000DF91EB
S1130370CF910895CF93DF9300D01F92CDB7DEB70E
S11303808B838CEB90E024EAFC01208380E491E0F1
S11303909A8389830FC089819A8101979A8389837B
S11303A089819A81892B31F4809124018160809321
S11303B0240132C08CEB90E0FC018081882324F07E
S11303C089819A81892B39F78BEB90E02B81FC0191
S11303D020838CEB90E024E8FC01208380E491E00E
S11303E09A8389830FC089819A8101979A8389832B
S11303F089819A81892B31F48091240182608093D0
S113040024010AC08CEB90E0FC018081882324F055
S113041089819A81892B39F70F900F900F90DF9182
S1130420CF910895CF93DF93CDB7DEB78CEB90E0F7
S113043024E9FC0120830000DF91CF910895CF933C
S1130440DF9300D01F92CDB7DEB78B838BEB90E0A8
S11304502B81FC0120838CEB90E024E8FC012083B9
S113046080E491E09A8389830FC089819A810197FE
S11304709A83898389819A81892B31F4809124011B
S11304808460809324010AC08CEB90E0FC0180819D
S1130490882324F089819A81892B39F70F900F9052
S11304A00F90DF91CF910895CF93DF9300D000D0C8
S11304B0CDB7DEB79B838A836C838AE70E94BA0137
S11304C080E00E941F0219820EC08981882F90E06B
S11304D02A813B81820F931FFC0180810E941F02AD
S11304E089818F5F898399818C81981770F30E9429
S11304F0120200000F900F900F900F90DF91CF9198
S11305000895CF93DF9300D000D000D0CDB7DEB7ED
S11305109C838B837E836D838AE70E94BA0180E487
S11305200E941F021A8219820FC02B813C8189818B
S11305309A81820F931FFC0180810E941F0289818E
S11305409A8101969A83898329813A818D819E813A
S11305502817390750F30E941202000026960FB69E
S1130560F894DEBF0FBECDBFDF91CF910895CF9336
S1130570DF93CDB7DEB7A1970FB6F894DEBF0FBEF9
S1130580CDBF89A30E94A30119821AC08981882F33
S113059090E02981222F30E024513D4F3B832A8370
S11305A02A813B81F90124912C834C819E012B5F8C
S11305B03F4F820F931FFC01408389818F5F8983A2
S11305C089818B3118F389A188A3CE0105966CE14A
S11305D00E9454020E943F030000A1960FB6F894B3
S11305E0DEBF0FBECDBFDF91CF910895CF93DF93D0
S11305F0CDB7DEB727970FB6F894DEBF0FBECDBFD9
S11306008E836F838E81863180F58F81883068F583
S11306109E81892F880F890F880F8E838E81809306
S113062022018F81809323018F818055898381E208
S11306308A838E818E5F8F708B838E81882F90E06A
S11306400296807F99279595879595958795959599
S1130650879595958795805F8C838FE78D8365E07B
S1130660CE0101960E94540201C0000027960FB6E5
S1130670F894DEBF0FBECDBFDF91CF910895CF9325
S1130680DF93CDB7DEB7C158D1090FB6F894DEBFFA
S11306900FBECDBFCE01029640E850E060E070E0AE
S11306A00E94A80619820DC0698180E00E94F602AA
S11306B0CE01029660E870E00E94810289818F5F1A
S11306C089838981883080F30E9471030000CF57A9
S11306D0DF4F0FB6F894DEBF0FBECDBFDF91CF91D1
S11306E00895CF93DF93CDB7DEB760E080E00E943A
S11306F0F6020000DF91CF910895CF93DF9300D0ED
S11307001F92CDB7DEB78B8381E889838B818A837F
S113071062E0CE0101960E94540200000F900F90F7
S11307200F90DF91CF910895CF93DF93CDB7DEB7CC
S1130730EE970FB6F894DEBF0FBECDBF8EAF8EAD71
S1130740882F90E08930910551F18A3091051CF48D
S1130750089749F06EC08A30910509F453C00D978B
S113076009F460C066C02091230190912201809118
S11307700001392F381B832F622F0E94F60280E27A
S11307800E94940320912301909122018091000101
S1130790E92FE81B8E2F622F0E94F6027FC2809100
S11307A02201282F30E080910001882F90E0880FEB
S11307B0991F880F991F820F931F9C01809100013C
S11307C0882F90E0880F991F880F991FAC0185E14D
S11307D090E0841B950B2817390768F420912301B6
S11307E09091220180910001880F880F890F622F58
S11307F00E94F60253C280912301682F85E10E9472
S1130800F6024CC280912301873008F044C29091D3
S1130810230180910001980F80912201692F0E9489
S1130820F60239C280912301682F80E00E94F6020B
S113083035C2809122018A3708F030C28EAD8032F1
S113084008F42CC28EAD80528EAF89ED92E0988769
S11308508F838F819885FC018491898799858EADDA
S1130860891708F44CC08EAD8A878FEF8EAF19823A
S11308702FC08981882F90E0880F991F88529D4F3F
S11308809F878E878E859F85FC018491888B8889BC
S1130890882F90E09C01205231098A85882F90E0AE
S11308A02817390791F48981882F90E0880F991FC0
S11308B0019688529D4F9A8B898B89899A89FC016C
S11308C084918B8B8B898EAF16C089818F5F8983CE
S11308D08981882F90E0880F991F019688529D4F37
S11308E09C878B878B859C85FC0184918D878D8566
S11308F08F3F09F0BECF8EAD8F3F09F4CEC18091FA
S11309000001823009F087C180912201882F90E094
S11309100C968138910510F00000C0C11A829EC067
S11309208A81882F90E0880F991F9E012F5F3F4F87
S1130930820F931F4A96FC01118210828EAD282FDC
S113094030E08A81482F50E0C901880F991F820F37
S1130950931F880F991F840F951F88599F4F9D8B54
S11309608C8B8C899D89FC0184918E8B8E898F8BD5
S11309701B826DC08F89882F90E02B81222F30E05D
S113098002C0959587952A95E2F781709927892B5E
S113099009F45AC08A81882F90E02A81222F30E0FE
S11309A0220F331FAE014F5F5F4F240F351F265EAA
S11309B03F4FF901208131814B81442F50E0BA012E
S11309C0660F771F41E050E002C0440F551F6A953F
S11309D0E2F7242B352B880F991FAE014F5F5F4F31
S11309E0840F951F4A96FC01318320838A81882FC6
S11309F090E02A81222F30E0220F331FAE014F5F97
S1130A005F4F240F351F265E3F4FF901208131814E
S1130A104B81442F50E0440F551FBA016F5F7F4F45
S1130A2041E050E002C0440F551F6A95E2F7242BC1
S1130A30352B880F991FAE014F5F5F4F840F951FB1
S1130A404A96FC01318320838B818F5F8B838B815A
S1130A50883008F48FCF8A818F5F8A838A818630B9
S1130A6008F45ECF1C823CC08C81882F90E0880FF4
S1130A70991F2C81222F30E0220F331FAE014F5FCC
S1130A805F4F240F351F265E3F4FF90120813181CE
S1130A90422F9E01295D3F4F820F931FFC0140832B
S1130AA08C81882F90E0880F991F01962C81222F2A
S1130AB030E0220F331FAE014F5F5F4F240F351F0D
S1130AC0265E3F4FF90120813181422F9E01295D2D
S1130AD03F4F820F931FFC0140838C818F5F8C8377
S1130AE08C81863008F2CE0187966CE070E00E941B
S1130AF08102809123018F548BAB81E28CAB809176
S1130B0022018E5F8F708DAB80912201882F90E03F
S1130B100296807F992795958795959587959595C4
S1130B20879595958795805F8EAB8FE78FABCE01C8
S1130B30C39665E00E9454021D8240C08D81882FB7
S1130B4090E0880F991F2D81222F30E0220F331F50
S1130B50AE014F5F5F4F240F351F265E3F4FF901F3
S1130B6020813181232F3327422F9E01295D3F4F5E
S1130B70820F931FFC0140838D81882F90E0880FA2
S1130B80991F01962D81222F30E0220F331FAE01D1
S1130B904F5F5F4F240F351F265E3F4FF9012081C1
S1130BA03181232F3327422F9E01295D3F4F820F2E
S1130BB0931FFC0140838D818F5F8D838D818630EF
S1130BC008F4BCCFCE0187966CE070E00E948102ED
S1130BD08091230180558BAB80912201825F8F70BD
S1130BE08DAB80912201882F90E00E96807F99270B
S1130BF0929582958F7089279F708927805F8EAB2D
S1130C00CE01C39665E00E94540280912201845F64
S1130C108093220143C080912201882F90E00696A0
S1130C208138910510F0000039C01E8225C08E81E4
S1130C30482F50E08EAD282F30E08E81682F70E071
S1130C40C901880F991F820F931F880F991F860F60
S1130C50971F88599F4F998F888F888D998DFC0194
S1130C6084918A8F2A8DCE01C896840F951FFC012A
S1130C7020838E818F5F8E838E818630C0F2CE0179
S1130C80C89666E070E00E948102809122018A5F2A
S1130C908093220103C0000001C000000000EE9612
S1130CA00FB6F894DEBF0FBECDBFDF91CF9108958C
S1130CB0CF93DF931F92CDB7DEB789838981809369
S1130CC0000100000F90DF91CF910895CF93DF933F
S1130CD000D0CDB7DEB79A8389830BC089819A810E
S1130CE09C012F5F3F4F3A832983FC0180810E943E
S1130CF0940389819A81FC018081882379F700001B
S1130D000F900F90DF91CF910895CF93DF93CDB7DC
S1130D10DEB78FEA0E94B7020E943F0380E00E9480
S1130D207D0361E084E00E94F60281E091E00E948C
S1130D30660682E00E94580664E080E00E94F602A3
S1130D408DE091E00E94660681E00E945806FFCF84
S1130D50DC0101C06D9341505040E0F70895F894D0
S1050D60FFCFBF
S1130D62014E6F726D616C2053697A6500202044D4
S1130D726F75626C6520200D0A20202053697A6504
S1050D8200006B
S9030000FC
