S0120000506F7765724F6E4F66662E737265632D
S11300000C9434000C943E000C943E000C943E007E
S11300100C943E000C943E000C943E000C943E0064
S11300200C943E000C943E000C943E000C943E0054
S11300300C943E000C943E000C943E000C943E0044
S11300400C943E000C943E000C943E000C943E0034
S11300500C943E000C943E000C943E000C943E0024
S11300600C943E000C943E0011241FBECFEFD8E048
S1130070DEBFCDBF0E9440000C945B000C940000D6
S113008080E68AB91BB85C9A5D9A21E099B13FEF8A
S113009043ED80E3315040408040E1F700C0000070
S11300A089B192959170921789F382958170821724
S10D00B069F35D98FFCFF894FFCFC9
S9030000FC
