S01000004750494F546573742E7372656345
S11300000C9434000C943E000C943E000C943E007E
S11300100C943E000C943E000C943E000C943E0064
S11300200C943E000C943E000C943E000C943E0054
S11300300C943E000C943E000C943E000C943E0044
S11300400C943E000C943E000C943E000C943E0034
S11300500C943E000C943E000C943E000C943E0024
S11300600C943E000C943E0011241FBECFEFD8E048
S1130070DEBFCDBF0E9440000C944A000C940000E7
S11300808AB1806E8AB980EE4C9B02C08BB9FCCFDA
S10B00901BB8FACFF894FFCF6E
S9030000FC
